:10000000685602208D460100A94301009D4601006B
:100010009D4601009D4601009D4601009D46010050
:100020000000000000000000000000001D2701008B
:100030009D4601000000000059270100C92701006A
:10004000FD3E0100DB37010027380100A538010023
:100050003D39010000000000000000000000000029
:100060000000000000000000000000000000000090
:100070000000000000000000000000000000000080
:100080000000000000000000000000000000000070
:100090000000000000000000000000000000000060
:1000A0000000000000000000000000000000000050
:1000B0000000000000000000000000000000000040
:1000C0000000000000000000000000000000000030
:1000D0000000000000000000000000000000000020
:1000E0000000000000000000000000000000000010
:1000F0000000000000000000000000000000000000
:1001000000000000000000000000000000000000EF
:1001100000000000000000000000000000000000DF
:1001200000000000000000000000000000000000CF
:1001300000000000000000000000000000000000BF
:1001400000000000000000000000000000000000AF
:10015000000000000000000000000000000000009F
:10016000000000000000000000000000000000008F
:10017000000000000000000000000000000000007F
:10018000000000000000000000000000000000006F
:10019000000000000000000000000000000000005F
:1001A000000000000000000000000000000000004F
:1001B000000000000000000000000000000000003F
:1001C000FFFFFFFFFFFFFFFFFFFFFFFFFFFFFFFF3F
:1001D000FFFFFFFFFFFFFFFFFFFFFFFFFFFFFFFF2F
:1001E000FFFFFFFFFFFFFFFFFFFFFFFFFFFFFFFF1F
:1001F000FFFFFFFFFFFFFFFFFFFFFFFFFFFFFFFF0F
:100200000348044B834202D0034B03B118477047A5
:10021000941D0020941D002000000000064B07499B
:10022000C91A891048BF0131491003D0044B0BB1E2
:1002300001481847704700BF941D0020941D0020FE
:100240000000000010B5064C237843B9FFF7D8FF33
:10025000044B13B10448AFF300800123237010BD99
:10026000B01D0020000000005002040008B5054B3E
:100270001BB105490548AFF30080BDE80840FFF712
:10028000CDBF00BF00000000B41D002050020400DC
:1002900080B582B000AF0123FB7116F0F1FE03467A
:1002A000FB71FB7918460837BD4680BD80B584B028
:1002B00000AF0123FB730023BB600023FB7116F02A
:1002C0002FFF0346FB7300F061F8B860B86816F0C2
:1002D000FBFE0346FB73FB79184616F002FF03464C
:1002E000FB73FB7B18461037BD4680BD80B582B0DE
:1002F00000AF0123FB7116F013FF0346FB710023CF
:1003000018460837BD4680BD80B584B000AF0123D4
:10031000FB730023BB600123FB7116F001FF034652
:10032000FB7300F033F8B860B86816F0CDFE0346F2
:10033000FB73FB79184616F0D4FE0346FB73FB7B78
:1003400018461037BD4680BD80B582B000AF01238E
:10035000FB7116F0E5FE0346FB71002318460837D3
:10036000BD4680BD80B586B000AFF860B9607A60E8
:100370000123FB757A68B968F86816F0C2FE034677
:10038000FB75FB7D18461837BD4680BD80B483B031
:1003900000AF81237B607B6818460C37BD465DF853
:1003A000047B704780B483B000AF786001231846A7
:1003B0000C37BD465DF8047B7047FFFF80B400AF8B
:1003C000024B1846BD465DF8047B7047CC1D0020EB
:1003D00080B586B000AFF860B9607A60FFF7EEFFD5
:1003E00078617B69FA681A607B69BA689A607B6990
:1003F0000E4ADA607B690E4A1A617B690D4A5A61BE
:100400007B690C337A681946786916F0CBFE38613F
:100410007B693A695A607B6900229A617B69002294
:100420001A777B6918461837BD4680BDAD050000B8
:10043000290600006106000080B584B000AF786036
:1004400039600123FB737B68BB60BB685B683968FC
:10045000184616F021FF0346FB73FB7B1846103746
:10046000BD4680BD80B584B000AF78600123FB73CA
:100470007B68BB60BB6801221A770A49002012F032
:1004800097F80949002012F093F8BB685B6818469A
:1004900016F040FF0346FB73FB7B18461037BD4642
:1004A00080BD00BF605003008450030080B584B05D
:1004B00000AF78600123FB737B68BB60BB680022E0
:1004C0001A77BB685B68184616F07AFF0346FB7321
:1004D000FB7B18461037BD4680BDFFFF80B584B05A
:1004E00000AF78600123FB737B68BB60BB680022B0
:1004F0001A770A49002012F05BF80949002012F02F
:1005000057F8BB685B68184616F004FF0346FB7398
:10051000FB7B18461037BD4680BD00BF88500300E6
:100520008450030080B584B000AF78600123FB7372
:100530007B68BB60BB685B68184616F041FF0346EA
:10054000FB73FB7B18461037BD4680BD80B584B079
:1005500000AF786039600123FB737B68BB60BB68C8
:100560005B683968184617F013F80346FB73FB7B8A
:1005700018461037BD4680BD80B586B000AFF86024
:10058000B9607A603B60FB687B610123FB747B6927
:1005900058683B687A68B96816F056FF0346FB74E2
:1005A000FB7C18461837BD4680BDFFFF90B589B06B
:1005B00002AFF860B9607A607B687B617B69FA683A
:1005C0009A617B699B681B68002B22D0134900202D
:1005D00011F0EEFF1249002011F0EAFF7B691B7F4A
:1005E000012B0BD17B699B681C687B691B6800939E
:1005F0000C4BBA68F9680220A0470AE07B699B6847
:100600001C687B691B680093064BBA68F968032075
:10061000A04700BF1C37BD4690BD00BFA8500300D7
:1006200084500300BC50030080B584B000AF7860F4
:1006300039603B68FB60FB689B685B68002B07D0F8
:10064000FB689B685B68FA6812681146786898478F
:10065000FB6800229A6100BF1037BD4680BDFFFFD6
:1006600090B587B000AFF860B9607A603B600E4922
:10067000002011F09DFF0D49002011F099FFBB688B
:100680007B617B699B689B68002B08D07B699B68BA
:100690009C687B6919683B687A68F868A04700BF66
:1006A0001C37BD4690BD00BFC850030084500300F6
:1006B00080B584B000AF786039603B68BB600023D0
:1006C000FB737B68002B14D0BB68002B11D0BB6878
:1006D0009A697B680949002011F06AFF08490020E7
:1006E00011F066FFBB689B697A689A4201D10123C9
:1006F000FB73FB7B18461037BD4680BDE0500300FE
:100700008450030080B586B000AF78603960002364
:100710007B6100233B610023FB600123FB724149A5
:10072000002011F045FF4049002011F041FF00F08A
:1007300049FA38613B69002B6FD03B6900221A717E
:100740003A49002011F034FF3749002011F030FF02
:100750007B68002B2AD100F03FFAF860FB68002B81
:100760005BD03B69FA689A603149002011F020FFA4
:100770002D49002011F01CFF386900F04BFA0346A8
:10078000FB72FB7A002B48D12A49002011F010FFA0
:100790002549002011F00CFFFFF77AFD0346FB729C
:1007A000FB7A002B39D10023FB722EE07B68022BF1
:1007B00002D07B68032B1FD13B690C337A68194642
:1007C0003868FFF705FE02463B69DA613B69DB6981
:1007D000002B08D01849002011F0EAFE1249002031
:1007E00011F0E6FE11E01549002011F0E1FE0E497E
:1007F000002011F0DDFE10E01149002011F0D8FEBC
:100800000949002011F0D4FE07E03B693A681A60FC
:100810003B6901221A713B697B617B691846183775
:10082000BD4680BD04510300205103002451030044
:1008300040510300605103008451030098510300AC
:10084000AC51030080B584B000AF786039600123FB
:10085000FB733B68BB60BB68002B07D0BB68DB69E0
:1008600079681846FFF7E8FD0346FB73FB7B1846E3
:100870001037BD4680BD80B485B000AF7860396068
:100880007B68FB60FB683A68DA600023184614371F
:10089000BD465DF8047B704780B485B000AF7860DA
:1008A00039607B68FB60FB683A681A610023184670
:1008B0001437BD465DF8047B7047FFFF80B584B0F8
:1008C00000AF786039600123FB737B68BB60BB6855
:1008D000002B1BD03B68002B04D1FFF7E7FC03463D
:1008E000FB7313E03B68032B07D1BB68DB69184639
:1008F000FFF7B8FD0346FB7308E00749002011F03D
:1009000057FE0649002011F053FE00BFFB7B18463E
:100910001037BD4680BD00BFAC510300205103001D
:1009200080B584B000AF786039600123FB737B68C9
:10093000BB60BB68002B1BD03B68002B04D1FFF7CA
:10094000D5FC0346FB7313E03B68032B07D1BB6860
:10095000DB691846FFF7AAFD0346FB7308E0074969
:10096000002011F025FE0649002011F021FE00BFF5
:10097000FB7B18461037BD4680BD00BFAC5103005D
:100980002051030080B584B000AF78603960012346
:10099000FB737B68BB60BB68002B22D03B68002BDD
:1009A00006D1FFF7B1FC0346FB73FB7B002B18E07D
:1009B0003B68022B02D03B68032B09D1BB68DB6983
:1009C0001846FFF78BFD0346FB73FB7B002B08E00B
:1009D0000649002011F0ECFD0549002011F0E8FD6A
:1009E00000BFFB7B18461037BD4680BDAC510300ED
:1009F0002051030080B584B000AF786039600123D6
:100A0000FB737B68BB60BB68002B1ED03B68002B70
:100A100004D1FFF799FC0346FB7316E03B68022BF9
:100A200002D03B68032B07D1BB68DB691846FFF790
:100A300079FD0346FB7308E00649002011F0B8FD7C
:100A40000549002011F0B4FD00BFFB7B18461037AC
:100A5000BD4680BDAC5103002051030080B586B077
:100A600000AF78600123FB754FF0FF333B6100F06E
:100A7000EBF8F860F968786800F0F0F838613B69E5
:100A8000002B08D11349002011F092FD12490020DB
:100A900011F08EFD16E03B69032B13D1FB68DB6977
:100AA00079681846FFF752FD0346FB75FB7D002B66
:100AB00008D00A49002011F07BFD0749002011F001
:100AC00077FD01E00023FB75FB7D18461837BD4616
:100AD00080BD00BFC451030020510300E851030052
:100AE00080B588B000AFF860B9607A603B600123E0
:100AF000FB774FF0FF33BB611D49002011F058FD1B
:100B00001C49002011F054FDFB68002B2BD0BB6862
:100B1000002B28D000F098F878617969F86800F027
:100B20009DF8B861BB69002B07D17A68B968F8688D
:100B3000FFF718FC0346FB7715E0BB69032B09D1CF
:100B40000D4BD8697B68BA68F968FFF715FD034655
:100B5000FB7708E00949002011F02AFD0549002033
:100B600011F026FD00BFFB7F18462037BD4680BD33
:100B70000052030020510300EC1D0020AC51030083
:100B800080B485B000AF786039607B68FB60FB683B
:100B90003A685A61002318461437BD465DF8047B55
:100BA000704780B485B000AF786039607B68FB60C7
:100BB000FB683A689A61002318461437BD465DF811
:100BC000047B704780B400AF024B1846BD465DF809
:100BD000047B7047EC1D002080B582B000AF00237D
:100BE0007B604FF48871052017F0AEFD78607B685C
:100BF0001A460649002011F0DBFC0549002011F0DF
:100C0000D7FC7B6818460837BD4680BD1C520300E0
:100C10002051030080B586B002AF786007F10C0365
:100C200001934FF40063009301237A680449054857
:100C300017F06CFD034618461037BD4680BD00BF57
:100C4000BD0C00003052030080B400AF024B1846C8
:100C5000BD465DF8047B7047EC1D002080B584B074
:100C600000AF786039604FF0FF33FB603B68BB60DA
:100C7000BB68DB6919467868FFF71AFD0346002B4D
:100C800002D00323FB6010E07868FFF78BFB03467C
:100C9000002B02D00023FB6007E00649002011F082
:100CA00087FC0549002011F083FCFB6818461037CB
:100CB000BD4680BD445203002051030090B5D1B021
:100CC00002AF07F59C73A3F59A73186007F59C7340
:100CD000A3F59A731B68C7F83431D7F834319B6891
:100CE00007F108021146184617F040FD034687F841
:100CF000333197F83331002BEFD107F59C73A3F50F
:100D000098731B78062B00F2FE8001A252F823F0A4
:100D10002D0D0000950D0000FD0D00004D0E000092
:100D20009F0E0000C90E0000DF0E00007749002072
:100D300011F03EFC7649002011F03AFC0123C7F87F
:100D4000183107F59C73A3F598735B681A46D7F8BA
:100D500034311A6216F0E4F9D7F83431DB68002B2D
:100D60000FD0D7F83431DC68D7F83431196AD7F8A6
:100D700034311B680093674BD7F818210020A04737
:100D8000C2E06549002011F013FC6149002011F018
:100D90000FFCB9E06149002011F00AFC5C49002019
:100DA00011F006FC0123C7F81C3107F59C73A3F56D
:100DB00098735B681A46D7F834311A6216F0B0F9A6
:100DC000D7F83431DB68002B0FD0D7F83431DC682A
:100DD000D7F83431196AD7F834311B6800934D4B7A
:100DE000D7F81C210120A0478EE04B49002011F0CC
:100DF000DFFB4749002011F0DBFB85E0484900207C
:100E000011F0D6FB4249002011F0D2FB07F59C738C
:100E1000A3F598735B68C7F82031D7F834311B69A4
:100E2000002B0AD0D7F834311B69D7F83421126867
:100E30001146D7F82001984766E03749002011F0A5
:100E4000B7FB3349002011F0B3FB5DE035490020CA
:100E500011F0AEFB2E49002011F0AAFB07F59C73A0
:100E6000A3F598739B68C7F82C3107F59C73A3F51D
:100E700098735B68C7F8283107F108031033C7F887
:100E80002431D7F834315C69D7F834311968D7F890
:100E90002C31D7F82421D7F82801A04734E007F5F2
:100EA0009C73A3F598735B6887F832311E49002064
:100EB00011F07EFB1649002011F07AFB97F83231D1
:100EC000184616F057F91FE01849002011F070FB82
:100ED0000F49002011F06CFB16F02AF914E01449B8
:100EE000002011F065FB0A49002011F061FBD7F8E2
:100EF00034319B69D7F83421106AD7F8342112684D
:100F00001146984700E000BFE7E600BF54520300D7
:100F10006C520300705203007C520300985203008D
:100F2000AC520300C4520300D4520300F052030039
:100F30000C53030080B500AF4FF424720021034826
:100F400033F022FA014B184680BD00BF000000209C
:100F5000B0B5C8B000AF07F59073A3F58E731860F5
:100F60000023C7F81C310023C7F81831012387F884
:100F700017315A4A07F1D40311464122184633F07B
:100F800080FA574A07F1900311464122184633F080
:100F900078FA544A07F14C0311464122184633F0BF
:100FA00070FA514B07F12C041D460FCD0FC495E884
:100FB0000F0084E80F0007F59073A3F58A734B4A7E
:100FC0001C4615460FCD0FC495E80F0084E80F00AE
:100FD000FFF7B0FFC7F81801D7F81831002B6BD016
:100FE000D7F81831C7F81C31D7F8183100221A7019
:100FF000D7F8183100225A70D7F818312F33102241
:101000003B49184617F0E2FB034687F8173197F87B
:101010001731002B52D1D7F8183103F5867307F139
:1010200090014122184617F0D1FB034687F817318B
:1010300097F81731002B43D1D7F81831CB3307F18C
:10104000D4014122184617F0C1FB034687F8173137
:1010500097F81731002B35D1D7F818316A3307F1DB
:101060002C012022184617F0B1FB034687F81731F0
:1010700097F81731002B27D1D7F818318A3307F1A9
:101080004C014122184617F0A1FB034687F817319F
:1010900097F81731002B19D1D7F818314A3307F1D7
:1010A0000C012022184617F091FB034687F81731F0
:1010B00097F81731002B0AE000BF08E000BF06E0F8
:1010C00000BF04E000BF02E000BF00E000BFD7F8AF
:1010D0001C31184607F59077BD46B0BD305303006C
:1010E00074530300B8530300FC5303001C54030063
:1010F0001C53030080B586B000AF786039600123CF
:10110000FB7507F108031946786800F056FC0346A2
:10111000FB75FB7D002B12D13A6807F108031146DD
:10112000184600F071F902463B68C3F800213B689D
:10113000D3F80031002B03D10123FB7500E000BF81
:10114000FB7D18461837BD4680BD80B58CB000AF1A
:1011500078603960012387F82F3007F10C032022D3
:101160000021184633F010F907F10C03194678688E
:1011700000F084FC034687F82F3097F82F30002BBF
:1011800013D13A6807F10C031146184600F0E6F94E
:1011900002463B68C3F800213B68D3F80031002BBE
:1011A00004D1012387F82F3000E000BF97F82F30DB
:1011B00018463037BD4680BD80B586B000AF786038
:1011C00039600123FB7507F10C0300221A605A6095
:1011D00007F10C031946786800F0ACFC0346FB7578
:1011E000FB7D002B12D13A6807F10C03114618461B
:1011F00000F03AFB02463B68C3F800213B68D3F895
:101200000031002B03D10123FB7500E000BFFB7D03
:1012100018461837BD4680BD80B588B000AF7860ED
:1012200039600123FB770123BB7707F10803002214
:101230001A605A609A60DA601A613B6858683B68C5
:101240001B7A194607F108031A4600F037F90346DE
:10125000BB77BB7F002B0AD107F1080319467868DA
:1012600000F0E0FB0346FB77FB7F002B00E000BFB4
:10127000FB7F18462037BD4680BD80B584B000AFE7
:10128000786039600123FB730023BB600123BB73CB
:101290003B6858683B681B7A194607F108031A46F1
:1012A00000F0B0FA0346BB73BB7B002B0AD107F1F9
:1012B00008031946786800F015FC0346FB73FB7BB6
:1012C000002B00E000BFFB7B18461037BD4680BDF9
:1012D00080B586B000AFF860B9601346FB7101239A
:1012E000FB7500233B610123BB75BB685868BB6875
:1012F0001B7A194607F110031A4600F02DFB03462E
:10130000BB75BB7D002B0BD1FA7907F11003194691
:10131000F86800F093FD0346FB75FB7D002B00E0B1
:1013200000BFFB7D18461837BD4680BD80B58AB02A
:1013300000AFF860B9603B601346FB71012387F88A
:1013400023302E4BBB6100237B620023FB750023FF
:10135000FB613B68012B01D1294BBB613B68022B30
:1013600001D1284BBB61FB79002B03D1BB6943F44E
:101370000043BB61BB691A0EBB691B0203F47F0308
:101380001A43BB691B0A03F47F431A43BB691B065C
:101390001343BB61FA687B6A134407F11801042206
:1013A000184617F013FA034687F8233097F82330CE
:1013B000002B1BD17B6A04337B62BB68DBB2083332
:1013C000DBB2FB75FA687B6A134407F1170101224F
:1013D000184617F0FBF9034687F8233097F82330B7
:1013E000002B05D17B6A01337B6202E000BF00E085
:1013F00000BF7B6A18462837BD4680BD0000D484F4
:101400000000CA840000C08480B586B000AF786058
:1014100039600123FB74284BFB6000237B610023B0
:10142000BB74FB681A0EFB681B0203F47F031A43AC
:10143000FB681B0A03F47F431A43FB681B06134334
:10144000FB603A687B69134407F10C0104221846DB
:1014500017F0BCF90346FB74FB7C002B24D17B699D
:1014600004337B617B6901337B613A687B69134498
:1014700079680D22184617F0A9F90346FB74FB7C26
:10148000002B13D17B690D337B613A687B69134470
:1014900000221A707B6901337B610D23BB743B68AA
:1014A0000433BA7C1A7002E000BF00E000BF7B6921
:1014B00018461837BD4680BD0004A40080B586B02C
:1014C00000AFF860B9607A600123FB750023BB753B
:1014D000FB683B61BB68023B3A6913441B78902B65
:1014E00009D0BB68013B3A6913441B78002B02D03A
:1014F0000423FB752DE03B695B78BB75BB7D5B0806
:10150000DAB27B681A727B680433B97D3A695A2073
:1015100009F056FC0346FB75FB7D002B18D1BB7D03
:1015200002333A6913443B613B695B78BB75BB7D11
:101530005B08DAB27B681A727B680C33B97D3A6952
:101540005C2009F03DFC0346FB75FB7D002B00E0B1
:1015500000BFFB7D18461837BD4680BD80B58AB0F8
:1015600000AF78603960012387F8233000237B8344
:1015700000233B830023FB8200233B61A04BFB60E5
:10158000002387F8223000237B620023FB6147F6AB
:1015900050737B81FB681A0EFB681B0203F47F0308
:1015A0001A43FB681B0A03F47F431A43FB681B06BC
:1015B0001343FB603A68FB69134407F10C010422F2
:1015C000184617F003F9034687F8233097F82330BD
:1015D000002B40F00081FB690433FB61FB690133A0
:1015E000FB617B68191D3A68FB6913440A460221B6
:1015F0005B2009F0FBFA78627B6A002B03D10123A0
:1016000087F82330F6E0FA697B6A1344FB617B6854
:101610001B7B5B00D9B27B6898683A68FB6913440E
:1016200002465C2009F0E2FA78627B6A002B00F047
:10163000D480FA697B6A1344FB617B891B021AB26E
:101640007B891B0A9BB21BB213431BB29BB27B81EB
:101650003A68FB69134407F10A010222184617F0A1
:10166000B5F8034687F8233097F82330002B40F075
:10167000B680FB690233FB613A68FB6913442022A0
:101680001A70FB690133FB617B6819693A68FB6971
:1016900013440A461021C02009F0A8FA78627B6A38
:1016A000002B00F09E80FA697B6A1344FB617B6823
:1016B0005B691A0E7B685B691B0203F47F031A43A4
:1016C0007B685B691B0A03F47F431A437B685B6991
:1016D0001B0613433B613A68FB69134407F1100290
:1016E0000421C12009F082FA78627B6A002B7AD04B
:1016F000FA697B6A1344FB617B681B8B1B021AB27D
:101700007B681B8B1B0A9BB21BB213431BB29BB2A1
:101710007B833A68FB69134407F11A020221C22055
:1017200009F064FA78627B6A002B5ED0FA697B6A02
:101730001344FB617B685B8B1B021AB27B685B8B7B
:101740001B0A9BB21BB213431BB29BB23B833A688A
:10175000FB69134407F118020221C32009F046FA7D
:1017600078627B6A002B42D0FA697B6A1344FB6182
:101770007B689B8B1B021AB27B689B8B1B0A9BB2FC
:101780001BB213431BB29BB2FB823A68FB69134442
:1017900007F116020221D62009F028FA78627B6A46
:1017A000002B26D0FA697B6A1344FB61FB69DBB22C
:1017B000053B87F822303B68043397F822201A70E3
:1017C0003A68FB69134400221A70FB690133FB611C
:1017D000FB697B620EE000BF0CE000BF0AE000BFC7
:1017E00008E000BF06E000BF04E000BF02E000BF69
:1017F00000E000BF7B6A18462837BD4680BD00BFA9
:101800000000308080B586B000AFF860B9607A60C3
:101810000123FB7500233B6145233B61BA683B69AB
:101820009A4202D00223FB7518E0BB68023BFA68BB
:1018300013441B78902B09D0BB68013BFA68134412
:101840001B78002B02D00423FB7507E07B68FA6845
:101850004121502009F0B4FA0346FB75FB7D184680
:101860001837BD4680BDFFFF80B586B000AF7860F9
:1018700039600123FB74374BBB600023BB7400232A
:101880007B610023FB60BB681A0EBB681B0203F47C
:101890007F031A43BB681B0A03F47F431A43BB68E8
:1018A0001B061343BB603A68FB68134407F1080149
:1018B0000422184616F08AFF0346FB74FB7C002BBB
:1018C00042D1FB680433FB60FB680133FB607B683B
:1018D00019683A68FB6813440A464121522009F00E
:1018E00085F978617B69002B02D10123FB742CE020
:1018F000FA687B691344FB607B6859683A68FB6847
:1019000013440A461021572009F070F978617B6969
:10191000002B02D10123FB7417E0FA687B691344A2
:10192000FB60FB68DBB2053BBB743B680433BA7CED
:101930001A703A68FB68134400221A70FB6801337E
:10194000FB60FB687B6100E000BF7B6918461837CD
:10195000BD4680BD0000328080B586B000AFF86023
:10196000B9607A600123FB7500233B61BB68023BD1
:10197000FA6813441B78902B09D0BB68013BFA68C6
:1019800013441B78002B02D00423FB7510E01423B2
:101990003B61BA683B699A4202D00223FB7507E0BB
:1019A0007B68FA681021582009F00AFA0346FB7593
:1019B000FB7D18461837BD4680BD80B485B000AFAA
:1019C000786039600023FB733B68A0221A703B6883
:1019D00000225A703B6800229A703B680822DA7035
:1019E0003B6809221A713B6843225A713B684322C3
:1019F0009A713B684322DA713B6844221A723B6851
:101A00004B225A723B6846229A723B687622DA72FF
:101A10003B6831221A73FB7B18461437BD465DF8CC
:101A2000047B704780B584B000AF786039600123D3
:101A3000FB737B68BB603B685B681A88BB685A8035
:101A40003B68DB681A88BB689A80BB6803F11A00A0
:101A50003B68D9683B681B7A5B001A4616F0B6FEF5
:101A60000346FB733B681A7ABB6883F82E20002379
:101A7000FB73FB7B18461037BD4680BD80B487B032
:101A800000AF786039607B687B610123FB740023C1
:101A9000FB607B6903F12F023B681A613B684FF4DE
:101AA00000425A613B6808221A833B6801225A832C
:101AB0007B695A883B689A807B6903F11A023B680C
:101AC0009A607B6993F82E203B681A733B6800226A
:101AD0009A830023FB74FB7C18461C37BD465DF8D7
:101AE000047B704780B584B000AF786039607B6854
:101AF000BB600123FB733B681B68184605F0E0FFE1
:101B00000346FB73FB7B002B0DD1BB6803F24D102A
:101B10003B681B684122194616F058FE0346FB73CA
:101B2000FB7B002B00E000BFFB7B18461037BD4657
:101B300080BDFFFFF0B5ADF5217D04AF07F51C7347
:101B4000A3F51B73186007F51C73A3F51C731960CC
:101B500007F51C73A3F51B731B68C7F868320123D4
:101B600087F86F3207F51C73A3F58C7318464FF492
:101B700082731A46002132F007FC07F51C73A3F5A7
:101B8000077318464FF482731A46002132F0FCFBAB
:101B90000023A7F866320023C7F86032D7F868320E
:101BA0001B78072B00F23381D7F868321B7801339A
:101BB000DAB2D7F868321A70D7F8683203F16A00DF
:101BC000D7F8683203F1CB01D7F8683203F14A0243
:101BD000D7F8683203F5C77305F0EAFF034687F8C4
:101BE0006F3297F86F32002B40F01381D7F86832CC
:101BF00003F24D14D7F8683203F5C775D7F8683289
:101C000003F16A06D7F8683203F18A0CD7F8683214
:101C100003F58673D7F868224A32D7F8681201F2C2
:101C2000CF11D7F8680200F2DF1003900291019201
:101C30000093634632462946204606F0F9F80346EB
:101C400087F86F3297F86F32002B40F0E480002362
:101C5000C7F85C3204F05AF8C7F85C02D7F868326B
:101C600003F2CF1107F10C031022184616F0AEFD57
:101C7000034687F86F3207F51C73A3F5197310221A
:101C80005A6407F5AC7310226B49184616F09EFD96
:101C9000034687F86F3207F51C73A3F58C73102287
:101CA000C3F80021D7F86832991C07F51C73A3F517
:101CB0008C73D3F8003107F5AC7213440A46022145
:101CC0005B2008F093FFC7F8600207F51C73A3F5CB
:101CD0008C73D3F80021D7F860321A4407F51C73CF
:101CE000A3F58C73C3F80021D7F8683293F82E302F
:101CF0005B00D9B2D7F8683203F11A0007F51C73FC
:101D0000A3F58C73D3F8003107F5AC721344024687
:101D10005C2008F06BFFC7F8600207F51C73A3F5A1
:101D20008C73D3F80021D7F860321A4407F51C737E
:101D3000A3F58C73C3F8002107F5AC7207F10C0111
:101D400007F1540300932023D7F85C0204F0ECFD64
:101D5000034687F86F3297F86F32002B5DD1D7F8C2
:101D6000683203F2EF10B7F8663207F154021344F9
:101D70001022194616F02AFD034687F86F3297F8AD
:101D80006F32002B4BD1B7F866321033A7F86632AA
:101D9000D7F8683203F2FF10B7F8663207F1540241
:101DA00013441022194616F011FD034687F86F32CE
:101DB00097F86F32002B34D1D7F8683203F2EF1066
:101DC000D7F8683203F24D11D7F8683203F20F23C7
:101DD0001A4606F06DFA034687F86F3297F86F32AD
:101DE000002B20D1D7F8683203F5C77207F51C73B2
:101DF000A3F51C731B681A60D7F8683203F20F2230
:101E000007F51C73A3F51C731B685A600CE000BF38
:101E10000AE000BF08E000BF06E000BF04E000BF2A
:101E200002E000BF00E000BF97F86F32184607F5E8
:101E30001D77BD46F0BD00BF3C54030080B5ADF535
:101E4000247D02AF07F52273A3F51F73186007F511
:101E50002273A3F52073196007F52273A3F281237F
:101E60001A7007F52273A3F51F731B68C7F87C323D
:101E7000012387F88732002387F87B3207F5227326
:101E8000A3F58C7318464FF482731A46002132F082
:101E90007BFA07F52273A3F5077318464FF4827394
:101EA0001A46002132F070FA0023A7F8783207F5BD
:101EB0002273A3F50B7300221A60043300221A6008
:101EC0005A609A60D7F87C3203F2FF10D7F87C3260
:101ED00003F5C77307F15C02194606F0E9F90346FA
:101EE00087F8873297F88732002B40F0C18007F5DA
:101EF0002273A3F520731B68196807F15C03102295
:101F0000184616F088FC034687F87B3297F87B3238
:101F1000012B3ED1002387F887320023C7F87432A3
:101F200003F0F4FEC7F874020023C7F88032D7F834
:101F30007C3203F2DF1107F114031022184616F069
:101F400045FC034687F8873207F52273A3F51D7316
:101F500010225A6407F5B8730A224A49184616F047
:101F600035FC034687F8873207F52273A3F58C7397
:101F70000A22C3F8002107F52273A3F2812300226D
:101F80001A7007F52273A3F281231B78002B08D067
:101F900003E0012387F887326DE06023C7F88032C1
:101FA00002E04023C7F8803207F5B87207F1140148
:101FB00007F16C030093D7F88032D7F8740204F06D
:101FC000B3FC034687F8873297F88732002B51D14C
:101FD000D7F87C3203F22F20B7F8783207F16C0281
:101FE00013441022194616F0F1FB034687F8873296
:101FF000B7F878321033A7F87832D7F87C3203F28A
:102000003F20B7F8783207F16C02134410221946CA
:1020100016F0DCFB034687F88732B7F878321033C6
:10202000A7F87832D7F87C3203F24F20B7F878322D
:1020300007F16C0213441022194616F0C7FB034641
:1020400087F88732B7F878321033A7F87832D7F8A4
:102050007C3203F25F20B7F8783207F16C02134448
:102060001022194616F0B2FB034687F8873202E0C9
:1020700000BF00E000BF97F88732184607F52277C7
:10208000BD4680BD50540300B0B5ADF5806D06AFC0
:1020900007F57A74A4F57774206007F57A70A0F5D7
:1020A0007870016007F57A71A1F579710A6007F51A
:1020B0007A72A2F57A721360012387F8E73307F585
:1020C0007A73A3F577731B68C7F8E03307F563737A
:1020D00048220021184632F057F907F5517348227B
:1020E0000021184632F050F907F57A73A3F5D4733E
:1020F00018464FF482731A46002132F045F907F56D
:102100007A73A3F52B7318464FF482731A46002195
:1021100032F03AF907F57A73A3F52F7300221A60AB
:10212000043300221A605A609A600023C7F8DC3337
:1021300007F57A73A3F531731A46002313605360D1
:1021400007F57A73A3F5717300221A600433FC2239
:102150000021184632F018F90023C7F8D83307F5E4
:102160007A73A3F57A731B68002B00F01F81D7F8F0
:10217000E033002B00F01A81D7F8E03303F22F216F
:1021800007F563731022184616F020FB034687F804
:10219000E7331023C7F8D033D7F8E03303F23F21F9
:1021A00007F551731022184616F010FB034687F806
:1021B000E7331023C7F88833D7F8E0335B7801336F
:1021C000DAB2D7F8E0335A7007F57A73A3F579736A
:1021D0001B68002B59D007F57A73A3F5797207F5C0
:1021E0007A73A3F5787307F510701268196816F002
:1021F000EDFA034687F8E73307F57A73A3F5D4734E
:1022000007F57A72A2F579721268C3F8002107F512
:102210007A73A3F579731B6803F00F03C3F11003FE
:10222000C7F8D43307F57A73A3F5757300221A60E3
:10223000043300221A605A609A6007F57A73A3F596
:10224000757380221A7007F57A73A3F5D473D3F8E7
:10225000003107F51072134407F11401D7F8D423A5
:10226000184616F0B3FA034687F8E73307F57A7392
:10227000A3F5D473D3F80021D7F8D4331A4407F563
:102280007A73A3F5D473C3F8002107F57A73A3F525
:10229000317307F124021A60D7F8D833DAB207F5A0
:1022A0007A73A3F531731A71D7F8FC0307F57A73C3
:1022B000A3F5D473D3F8001197F80024D7F80434A9
:1022C000FFF734F803461A46D7F8FC33C3F8002169
:1022D000D7F8E0335B78D7F8E02302F26F2207F5F6
:1022E000107507F5517407F56370D7F8FC13049166
:1022F00007F59E71039107F5967102910192009383
:102300002B4622460146D7F8DC0304F085FF03463E
:1023100087F8E73307F57A73A3F52B73D3F8002119
:1023200007F59E7107F57A73A3F57A73186816F0AE
:102330004DFA034687F8E733D7F8E03303F27F23FB
:1023400007F596711022184616F040FA034687F8F2
:10235000E73307F57A73A3F52B73D3F8003107F54C
:102360007A72A2F57A721268134407F59671082200
:10237000184616F02BFA034687F8E73307F57A7309
:10238000A3F52B73D3F8003103F10802D7F8F83323
:102390001A60D7F8E03303F26F2307F59671102225
:1023A000184616F013FA034687F8E73397F8E73331
:1023B000184607F57A77BD46B0BDFFFFB0B5ADF55D
:1023C000387D06AF07F53274A4F52F74206007F549
:1023D0003270A0F53070016007F53271A1F53171EE
:1023E0000A6007F53272A2F532721360012387F892
:1023F000C73207F53273A3F52F731B68C7F8C032D5
:1024000007F53273A3F5887318464FF482731A46A2
:10241000002131F0B9FF07F53273A3F505731846B3
:102420004FF482731A46002131F0AEFF07F5327384
:10243000A3F51773184648231A46002131F0A4FF6C
:1024400007F53273A3F52973184648231A4600216D
:1024500031F09AFF0023C7F8BC3207F53273A3F5B9
:102460002D7300221A60043300221A605A609A60A9
:1024700007F53273A3F5317207F53273A3F53073A4
:1024800007F5DC701268196816F0A0F9034687F8A2
:10249000C73207F53273A3F5887307F53272A2F5D8
:1024A00031721268C3F80021D7F8C03203F22F212D
:1024B00007F16C031022184616F088F9034687F8D6
:1024C000C73207F53273A3F5177310225A64D7F891
:1024D000C03203F24F2107F124031022184616F0F0
:1024E00075F9034687F8C73207F53273A3F52973E8
:1024F00010225A64D7F8C0325B78D7F8C02202F2B3
:102500007F2207F5DC7507F1240407F16C00B7F8AA
:10251000DC12049107F1B401039107F11401029157
:10252000019200932B4622460146D7F8BC0204F0E4
:10253000A3FB034687F8C73297F8C732002B08D0B1
:102540001A49002010F034F81949002010F030F832
:1025500024E007F53273A3F50573D3F80021D7F80B
:10256000D8321A60D7F8D8321A6807F1B40107F5E3
:102570003273A3F53273186816F028F9034687F80A
:10258000C732D7F8C03203F27F2307F114011022BB
:10259000184616F01BF9034687F8C73297F8C7327A
:1025A000184607F53277BD46B0BD00BF5C54030046
:1025B0007054030080B582B000AF78607B6857220A
:1025C0001A707B6883225A707B680B4A5A607B685A
:1025D00008330F220949184616F0F8F87B681733BC
:1025E0000F220749184616F0F1F87B680022DA84BA
:1025F00000BF0837BD4680BD380600207454030074
:102600008454030080B584B000AF78600023FB8160
:1026100041F2280200212E4831F0B6FE2C4A7B6898
:10262000136047F62073FB81FB891B021AB2FB89FA
:102630001B0A9BB21BB213431BB29AB2244B9A8063
:1026400047F62273FB81FB891B021AB2FB891B0A26
:102650009BB21BB213431BB29AB21D4BDA8047F6F2
:102660002473FB81FB891B021AB2FB891B0A9BB2F4
:102670001BB213431BB29AB2154B1A810023FB8184
:10268000D323FB81124AFB895381114B0022C3F8EB
:102690001C280F4B00221A730D4B0E4AC3F810284A
:1026A0000B4B40F2D712C3F81428094B0A4A9A631D
:1026B000074B4FF4E872DA63054B0022C3F8202879
:1026C0000648FFF777FF024B18461037BD4680BD1E
:1026D0007C06002090020020680400208C06002068
:1026E00090B5ADF5597D04AF07F55473A3F5537359
:1026F000186007F55473A3F554731960012387F824
:102700004F3307F5457328220021184631F03CFE6F
:1027100007F5437300221A605A600023C7F8483354
:102720000023C7F8083307F55473A3F553731B68E8
:10273000C7F8443307F55473A3F5A47300221A6055
:102740000433FC220021184631F01EFE07F55473B5
:10275000A3F554731B68C7F84033D7F84433D3F854
:102760001C38C7F83C33D7F84433D3F82038002B53
:1027700038D107F55473A3F5527300221A6004335D
:102780004FF4FE720021184631F0FEFD07F10803F8
:10279000C7F8143307F5457207F55473A3F553735F
:1027A0001146186800F06EFD034687F84F3397F81E
:1027B0004F33002B40F0C380D7F8443303F6260292
:1027C00007F545731146184600F02AFE0246D7F871
:1027D0004433C3F82028D7F84433D3F82038002BEB
:1027E00000F0AF80D7F8443393F82538012B2DD172
:1027F0004123C7F84833D7F8443303F62603412270
:102800005549184615F0E2FF034687F84F33D7F8CD
:1028100044331868D7F8443303F62601D7F8443315
:1028200093F8243807F50272002403940293D7F832
:102830004033019307F5427300931346D7F84823BA
:10284000FFF722FC034687F84F3341E0D7F84433C3
:10285000D3F82028D7F83C33EF339A4208D9EF2336
:10286000C7F84833D7F84433012283F824280DE011
:10287000D7F84433D3F82028D7F83C33D31AC7F815
:102880004833D7F84433002283F82428D7F8443358
:102890001868D7F83C3303F50263D7F84423134490
:1028A000991DD7F8443393F8243807F502720024B1
:1028B00003940293D7F84033019307F542730093D2
:1028C0001346D7F84823FFF7DFFB034687F84F335B
:1028D00097F84F33002B36D1D7F84433D3F81C2860
:1028E000D7F848331A44D7F84433C3F81C2807F5FF
:1028F0000273C7F80C33D7F80833DBB287F810330C
:1029000007F55473A3F554731968D7F8443393F853
:10291000242807F54373184600F010FE024607F519
:102920005473A3F554731B68C3F8002107F554735F
:10293000A3F554731B68D3F80031002B04E000BFEB
:1029400002E000BF00E000BF97F84F33184607F5DC
:102950005577BD4690BD00BF3806002080B58CB0CD
:1029600004AF786039600123FB770123BB7707F15F
:102970000C0300221A605A600023BB610023BB6075
:102980007B687B613B6858683B681B7A194607F196
:102990000C031A4600F049FF0346BB77BB7F002BB0
:1029A00015D17B691868F9683B699BB27A6992F81E
:1029B00024280292019307F108030093BB690822BF
:1029C000FFF7FCFC0346FB77FB7F002B00E000BF1A
:1029D000FB7F18462037BD4680BDFFFF90B597B0FE
:1029E00004AF78603960012387F8433007F1300382
:1029F00000221A605A607B68FB6300233B6107F189
:102A0000140300221A605A609A60DA601A615A61EF
:102A10009A6100237B643B68BB630023FB60FB6B14
:102A20001B7B032B02D101237B6401E002237B6427
:102A3000FB6B1B7BFA6B5B0013449B881A4628498F
:102A400000200FF0B5FD274900200FF0B1FDFB6B12
:102A5000012283F82428FB6B1868FB6B1B7B5B004F
:102A6000FA6B1344191DFB6B93F8243807F110021D
:102A7000012403940293BB6B019307F10C030093B1
:102A800013467A6CFFF700FB034687F8433097F84C
:102A90004330002B1BD107F110033B63FB68DBB213
:102AA00087F834303A6807F130031146184600F0D1
:102AB000B3FD02463B68C3F800213B68D3F8003100
:102AC000002B06D0FB6B0022C3F8182802E000BFE1
:102AD00000E000BF97F8433018464C37BD4690BD24
:102AE00094540300AC540300B0B5D0B004AF07F564
:102AF0009873A3F59273186007F59873A3F5947310
:102B0000196007F59873A3F596731A6007F58C732F
:102B100000221A605A609A60012387F82F3101233E
:102B200087F82E3107F59873A3F58C7300221A608D
:102B30000433FC220021184631F026FC07F5987377
:102B4000A3F58E7300221A6007F59873A3F59273AC
:102B50001B68C7F82831D7F82831D3F81838C7F8D8
:102B6000243107F59873A3F594731B68586807F52B
:102B70009873A3F594731B681B7A194607F598732D
:102B8000A3F5967307F58C721B6800F084FE03466C
:102B900087F82E3197F82E31002B40F0DD80D7F8E2
:102BA00028311868D7F8181197F81C311D46D7F846
:102BB00020319BB2D7F8282192F8242807F1180475
:102BC0000292019307F11403009323462A46FFF76C
:102BD000F5FB034687F82F3197F82F31002B40F093
:102BE000BD80D7F828311B7B002B26D1D7F82431A4
:102BF0004033D7F82821D01807F59873A3F58E73C2
:102C00001A6807F11803194615F0E0FD034687F826
:102C10002F3197F82F31002B40F0A280D7F82831C0
:102C2000D3F8CC2207F59873A3F58E731B681A446A
:102C3000D7F82831C3F8CC226FE0D7F828311B7BB6
:102C4000012B26D1D7F8243103F53473D7F8282186
:102C5000D01807F59873A3F58E731A6807F1180357
:102C6000194615F0B3FD034687F82F3197F82F3139
:102C7000002B77D1D7F82831D3F85C2507F5987366
:102C8000A3F58E731B681A44D7F82831C3F85C2566
:102C900043E0D7F828311B7B022B26D1D7F824310B
:102CA00003F5AC63D7F82821D01807F59873A3F57E
:102CB0008E731A6807F11803194615F087FD03464D
:102CC00087F82F3197F82F31002B4DD1D7F82831C5
:102CD000D3F8EC2707F59873A3F58E731B681A4495
:102CE000D7F82831C3F8EC2717E0D7F8243103F5DB
:102CF000FE63D7F82821D01807F59873A3F58E73D3
:102D00001A6807F11803194615F060FD034687F8A5
:102D10002F3197F82F31002B28D1D7F82831D3F84D
:102D2000182807F59873A3F58E731B681A44D7F813
:102D30002831C3F8182807F59873A3F596731B6814
:102D40001B78002B13D1D7F828311B7B0133DAB263
:102D5000D7F828311A730AE000BF08E000BF06E088
:102D600000BF04E000BF02E000BF00E000BF97F832
:102D70002F31184607F59877BD46B0BD80B596B09F
:102D800004AF78603960012387F8473000233B6344
:102D90007B683B6400233B6107F1140300221A6047
:102DA0005A609A60DA601A615A619A610023FB6383
:102DB0000023FB603B68BB6300237B633B6C012209
:102DC00083F824283B6C18683B6C93F8243807F18F
:102DD0001002022103910293BB6B019307F10C03D4
:102DE00000931346FA6B796BFFF74EF9034687F8A9
:102DF000473097F84730002B16D107F110033B639B
:102E00003A6807F130031146184600F069FC0246A3
:102E10003B68C3F800213B68D3F80031002B04D194
:102E2000012387F8473000E000BF97F84730184685
:102E30004837BD4680BDFFFFB0B5D0B004AF07F541
:102E40009873A3F59273186007F59873A3F59473BC
:102E5000196007F59873A3F596731A6007F58C73DC
:102E600000221A605A609A60012387F82F310123EB
:102E700087F82E3107F59873A3F58C7300221A603A
:102E80000433FC220021184631F07EFA07F59873CE
:102E9000A3F58E7300221A6007F59873A3F5927359
:102EA0001B68C7F82831D7F82831D3F81838C7F885
:102EB000243107F59873A3F594731B68586807F5D8
:102EC0009873A3F594731B681B7A194607F59873DA
:102ED000A3F5967307F58C721B6800F04BFD034653
:102EE00087F82E3197F82E31002B40F0CD80D7F89F
:102EF00028311868D7F8181197F81C311D46D7F8F3
:102F000020319BB2D7F8282192F8242807F1180421
:102F10000292019307F11403009323462A46FFF718
:102F20004DFA034687F82F3197F82F31002B40F0E8
:102F3000AD80D7F828311B7B002B26D1D7F8243160
:102F40004033D7F82821D01807F59873A3F58E736E
:102F50001A6807F11803194615F038FC034687F87C
:102F60002F3197F82F31002B40F09280D7F828317D
:102F7000D3F8CC2207F59873A3F58E731B681A4417
:102F8000D7F82831C3F8CC225FE0D7F828311B7B73
:102F9000012B26D1D7F8243103F53473D7F8282133
:102FA000D01807F59873A3F58E731A6807F1180304
:102FB000194615F00BFC034687F82F3197F82F318F
:102FC000002B67D1D7F82831D3F85C2507F5987323
:102FD000A3F58E731B681A44D7F82831C3F85C2513
:102FE00033E0D7F828311B7B022B26D1D7F82431C8
:102FF00003F5AC63D7F82821D01807F59873A3F52B
:103000008E731A6807F11803194615F0DFFB0346A3
:1030100087F82F3197F82F31002B3DD1D7F8283181
:10302000D3F8EC2707F59873A3F58E731B681A4441
:10303000D7F82831C3F8EC2707E01B4900200FF030
:10304000B7FA1A4900200FF0B3FAD7F82831D3F8AD
:10305000182807F59873A3F58E731B681A44D7F8E0
:103060002831C3F8182807F59873A3F596731B68E1
:103070001B78002B11D1D7F828311B7B0133DAB232
:10308000D7F828311A7308E000BF06E000BF04E05B
:1030900000BF02E000BF00E000BF97F82F311846E4
:1030A00007F59877BD46B0BDB0540300AC5403009B
:1030B00080B586B000AFF860B96011461A460B467D
:1030C000FB711346BB710123FB750023BB82FB79A7
:1030D0003B75BB797B75BA6807F114031146184636
:1030E00000F05EFB0246BB68C3F80021BB68D3F862
:1030F0000031002B02D00023FB7500E000BFFB7DF8
:1031000018461837BD4680BD80B584B000AF7860E2
:1031100039600123FB730123BB733B685A683B682A
:103120001B7A1946104600F093FC0346BB73BB7B29
:10313000002B02D10023FB7300E000BFFB7B18468D
:103140001037BD4680BDFFFFB0B598B002AF7860C4
:10315000012387F857307B683B650023FB6007F14C
:1031600010033D220021184631F00EF93B6D03F1AA
:1031700040003B6DD3F8CC123B6D03F534743B6DCE
:10318000D3F85C553B6D03F5AC633A6DD2F8EC2790
:10319000019200932B46224605F0F0F9034687F88A
:1031A000573097F85730002B08D0194900200FF0FE
:1031B000FFF9184900200FF0FBF923E03B6D03F500
:1031C000AC603B6DD3F8EC3707F10C02194605F003
:1031D000FDFA034687F8573097F85730002B08D090
:1031E0000D4900200FF0E4F90A4900200FF0E0F942
:1031F00008E007F10C030021184602F09DF9034690
:1032000087F8573097F8573018465837BD46B0BD45
:10321000D4540300AC540300F854030080B485B0C8
:1032200000AF78607B68FB60FB6893F82438184631
:103230001437BD465DF8047B704780B485B000AF9D
:1032400078600B46FB707B68FB60FB78012B08D134
:10325000FB68012283F82528FB68002283F82428D4
:1032600003E0FB68002283F82528FB68002283F82E
:103270002428FB6893F8253818461437BD465DF8B6
:10328000047B704780B584B000AF7860396001235B
:10329000FB737B68BB603B6819683B6804331A4664
:1032A000786800F012F80346FB73BB68D3F8102867
:1032B0003B689A60BB68D3F814389AB23B689A812D
:1032C000FB7B18461037BD4680BD80B588B000AF87
:1032D000F860B9607A600123FB77FB68BB6100236B
:1032E0007B6100233B61BB6903F11001BA683B6954
:1032F00013440A460121462007F078FC78617B6977
:10330000002B7BD03A697B6913443B61BB6903F1B5
:103310001101BA683B6913440A460121472007F0AE
:1033200065FC78617B69002B6AD03A697B6913443C
:103330003B61BB6903F11201BA683B6913440A4659
:1033400002215C2007F052FC78617B69002B59D088
:103350003A697B6913443B61BB695969BA683B6947
:1033600013440A4641215B2007F040FC78617B69E9
:10337000002B49D03A697B6913443B61BB6903F177
:103380001801BA683B6913440A460F21512007F01F
:103390002DFC78617B69002B38D03A697B69134436
:1033A0003B61BB6903F12701BA683B6913440A46D4
:1033B0000F21522007F01AFC78617B69002B27D07F
:1033C0003A697B6913443B61BB69DB8E1946BA6875
:1033D0003B6913440A4602214E2007F007FC78613E
:1033E0007B69002B16D03A697B6913443B613B69CA
:1033F0009AB27B681A800023FB770CE000BF0AE0DA
:1034000000BF08E000BF06E000BF04E000BF02E02C
:1034100000BF00E000BFFB7F18462037BD4680BDDF
:1034200080B584B000AF786039600023FB60002372
:10343000BB607B68002B7CD03B68002B79D07B681D
:1034400099887B6818683A68FB681344024647F617
:103450004A7007F009FCB860BB68002B60D0BB68FD
:10346000FB607B6899897B6898683A68FB681344BD
:10347000024647F64B7007F0F7FBB860BB68002BBD
:1034800050D0FA68BB681344FB607B689B8A002BB2
:1034900013D07B68998A7B6818693A68FB68134483
:1034A000024647F64C7007F0DFFBB860BB68002BA4
:1034B0003AD0FA68BB681344FB607B689B8B002B97
:1034C00013D07B68998B7B6898693A68FB681344D2
:1034D000024647F64D7007F0C7FBB860BB68002B8B
:1034E00024D0FA68BB681344FB607B689B8C002B7C
:1034F00013D07B68998C7B68186A3A68FB68134420
:10350000024647F64E7007F0AFFBB860BB68002B71
:103510000ED0FA68BB681344FB60FB68BB6008E030
:1035200000BF06E000BF04E000BF02E000BF00E013
:1035300000BFBB6818461037BD4680BD80B588B057
:1035400000AFF860B9601346FB710123FB76314B85
:103550003B610023BB760023FB6100237B61FB7989
:10356000002B03D13B6943F400433B613B691A0ED6
:103570003B691B0203F47F031A433B691B0A03F4F4
:103580007F431A433B691B0613433B61BA687B695F
:10359000134407F110010422184615F017F90346E9
:1035A000FB76FB7E002B2CD17B6904337B617B692E
:1035B00001337B61BA687B69D018FB681968FB68C6
:1035C0001B791A4615F002F90346FB76FB7E002BA9
:1035D00019D1FB681B791A467B6913447B61FB6830
:1035E0001B79BB76BB680433BA7E1A70BA687B69F4
:1035F000134400221A707B6901337B617B69FB6194
:1036000002E000BF00E000BFFB6918462037BD465E
:1036100080BD00BF0000D48480B586B000AF786064
:1036200039600123FB742D4BBB600023BB74002366
:103630007B610023FB60BB681A0EBB681B0203F4AE
:103640007F031A43BB681B0A03F47F431A43BB681A
:103650001B061343BB603A68FB68134407F108017B
:103660000422184615F0B2F80346FB74FB7C002BCD
:103670002CD1FB680433FB60FB680133FB603A68C4
:10368000FB68D0187B6819687B681B791A4615F0AF
:103690009DF80346FB74FB7C002B19D17B681B79DA
:1036A0001A46FB681344FB607B681B79BB743B685C
:1036B0000433BA7C1A703A68FB68134400221A700B
:1036C000FB680133FB60FB687B6102E000BF00E048
:1036D00000BF7B6918461837BD4680BD0000CA840C
:1036E00080B586B000AF786039600123FB742B4B46
:1036F000BB600023BB7400237B610023FB60BB68BD
:103700001A0EBB681B0203F47F031A43BB681B0A33
:1037100003F47F431A43BB681B061343BB603A683C
:10372000FB68134407F108010422184615F04EF80F
:103730000346FB74FB7C002B27D1FB680433FB6042
:10374000FB680133FB603A68FB68D0187B681B6834
:103750000822194615F03AF80346FB74FB7C002B4F
:1037600015D1FB680833FB600823BB743B68043346
:10377000BA7C1A703A68FB68134400221A70FB681E
:103780000133FB60FB687B6102E000BF00E000BF2B
:103790007B6918461837BD4680BD00BF0000C08455
:1037A00080B586B000AF786039600123FB7448F2C1
:1037B0003C037B8100237B610023FB607B891B0230
:1037C0001AB27B891B0A9BB21BB213431BB29BB27A
:1037D0007B813A68FB68134407F10A01022218460C
:1037E00014F0F4FF0346FB74FB7C002B17D1FB683D
:1037F0000233FB603A68FB6813447A6812781A70E7
:10380000FB680133FB603A68FB6813447A685278BE
:103810001A70FB680133FB60FB687B6100E000BF4E
:103820007B6918461837BD4680BD80B487B000AFAD
:10383000F860B9607A600123FB75FB683B61BB6887
:10384000023B3A6913441B78902B09D0BB68013BBB
:103850003A6913441B78002B02D00423FB7513E054
:10386000BB68013B3A6913441B781B02BA68023AF1
:1038700039690A44127813431A467B685A607B6898
:10388000FA681A600023FB75FB7D18461C37BD469D
:103890005DF8047B704780B487B000AFF860B96012
:1038A0007A603B600123FB75FB683B61BB68023BB0
:1038B0003A6913441B78902B08D1BB68013B3A69E5
:1038C00013441B78002B01D10023FB75BB68023B1E
:1038D0003A6913441B78902B2AD0BB68023B3A69A3
:1038E00013441B78612B0ED1BB68013B3A6913442A
:1038F0001B78002B07D0BB68013B3A6913441A7848
:103900003B681A7014E0BB68023B3A6913441B78A9
:10391000612B0AD1BB68013B3A6913441B78002B29
:1039200003D13B68FF221A7002E00423FB751AE002
:10393000BB68013B3A6913441B781B02BA68023A20
:1039400039690A44127813431A467B689A60BB6847
:10395000023BBB607B68FA681A60BB68DAB27B68BE
:103960001A710023FB75FB7D18461C37BD465DF8B8
:10397000047B704780B487B000AFF860B9607A60AC
:103980003B600123FB75FB683B61BB68023B3A6906
:1039900013441B78902B08D1BB68013B3A69134450
:1039A0001B78002B01D10023FB75BB68023B3A69F1
:1039B00013441B78902B2AD0BB68023B3A6913440E
:1039C0001B78612B0ED1BB68013B3A6913441B780D
:1039D000002B07D0BB68013B3A6913441A783B6857
:1039E0001A7014E0BB68023B3A6913441B78612BE0
:1039F0000AD1BB68013B3A6913441B78002B03D101
:103A00003B68FF221A7002E00423FB7519E0BB68D3
:103A1000013B3A6913441B781B02BA68023A3969C0
:103A20000A44127813431A467B689A607B68FA68E6
:103A30001A60BB68DBB2023BDAB27B681A71002302
:103A4000FB75FB7D18461C37BD465DF8047B70474F
:103A500080B485B000AF786039600123FB733B68A8
:103A6000023B7A6813441B78902B09D03B68013BDA
:103A70007A6813441B78002B02D00423FB7301E007
:103A80000023FB73FB7B18461437BD465DF8047BAF
:103A90007047FFFF80B5A2B000AFF860B9607A60F0
:103AA000FB70012387F883300023C7F8843007F1C7
:103AB00010031A46B968F86800F032F8034687F830
:103AC000833097F88330002B08D0124900200EF085
:103AD0006FFD114900200EF06BFD15E007F110019C
:103AE00000230022786806F04DFDC7F88400D7F85F
:103AF0008430002B08D1094900200EF059FD0649F9
:103B000000200EF055FD00BFD7F8843018468837E6
:103B1000BD4680BD145503003055030034550300E5
:103B200080B5BEB000AFF860B9607A60002387F856
:103B3000F7300023C7F8F030B968F86801F056FD97
:103B4000C7F8EC00D7F8EC30002B00F0C780D7F8AE
:103B5000EC309A887B68DA8007F114031946D7F8AD
:103B6000EC0002F053F9034687F8F73097F8F73086
:103B7000002B08D05C4900200EF01AFD5B490020A4
:103B80000EF016FDAAE0D7F8EC30042283F8F920F5
:103B9000D7F8EC30FA33BA6D07F11401184614F077
:103BA00015FE034687F8F73097F8F730002B08D05A
:103BB0004F4900200EF0FCFC4C4900200EF0F8FCB0
:103BC0008CE0D7F8EC3003F58D70D7F8A02007F122
:103BD00014034833194614F0F9FD034687F8F7300B
:103BE00097F8F730002B08D0414900200EF0E0FC98
:103BF0003E4900200EF0DCFC70E0D7F8EC3003F119
:103C00007000D7F8E82007F114039033194614F038
:103C1000DDFD034687F8F73097F8F730002B08D022
:103C2000334900200EF0C4FC304900200EF0C0FCE7
:103C300054E0D7F8E820D7F8EC30C3F8B4207B681C
:103C400003F10800D7F8EC30F9334122194614F09B
:103C5000BDFD034687F8F73097F8F730002B08D002
:103C6000234900200EF0A4FC204900200EF0A0FC07
:103C700034E0D7F8EC3018331A461021D7F8F000AA
:103C800002F052F8034687F8F7307B6803F14900E9
:103C9000D7F8EC3018331022194614F097FD03467C
:103CA00087F8F73097F8F730002B08D0114900203B
:103CB0000EF07EFC0D4900200EF07AFC0EE07968D3
:103CC0004FF031324FF03133C1E91823D7F8EC10FF
:103CD0004FF031324FF03133C1E9042397F8F73018
:103CE0001846F837BD4680BD5055030030550300D7
:103CF0006C5503007C55030090B5ADF5297D02AFEE
:103D000007F52674A4F52374206007F52670A0F546
:103D100024700160114607F52672A2F52672136021
:103D200007F52673A3F291230A461A70002387F839
:103D3000973207F51E7300221A605A609A60DA60A3
:103D400007F52673A3F50E7318464FF482731A46CF
:103D5000002130F019FB0023C7F8903207F52673D5
:103D6000A3F52073184648231A46002130F00CFBB7
:103D7000002387F88F3207F52673A3F5247207F521
:103D80002673A3F523731168186801F02FFCC7F898
:103D90008802D7F88832002B00F0C781D7F8883224
:103DA00003F27B1007F52673A3F526731B684122E7
:103DB000194614F00BFD034687F8973297F89732AF
:103DC000002B08D0DC4900200EF0F2FBDB4900207C
:103DD0000EF0EEFBA9E107F52673A3F291231B7801
:103DE000012B40F0A281D7F8883203F1FA0107F5E0
:103DF000B2732022184614F0E9FC034687F8973284
:103E000097F89732002B08D0CB4900200EF0D0FB5A
:103E1000CA4900200EF0CCFB87E107F52673A3F515
:103E20009A732022C3F8002107F52673A3F59A732D
:103E3000D3F8003107F5B272D018D7F8883203F5FD
:103E4000BE732022194614F0C1FC034687F897324E
:103E500097F89732002B08D0B74900200EF0A8FB46
:103E6000B64900200EF0A4FB5FE107F52673A3F529
:103E70009A73D3F8003103F1200207F52673A3F5F6
:103E80009A73C3F8002107F52673A3F59A73D3F844
:103E9000003107F5B272D018D7F8883218331022E3
:103EA000194614F093FC034687F8973297F8973237
:103EB000002B08D0A04900200EF07AFB9F4900207B
:103EC0000EF076FB31E107F52673A3F59A73D3F86C
:103ED000003103F1100207F52673A3F59A73C3F8B6
:103EE000002107F52673A3F59A73D3F8003107F57F
:103EF0002672A2F59A725E21D15407F52673A3F5B6
:103F00009A73D3F800315A1C07F52673A3F59A73F8
:103F1000C3F8002107F52673A3F59A73D3F800318F
:103F200007F52672A2F59A720121D15407F526737E
:103F3000A3F59A73D3F800315A1C07F52673A3F53D
:103F40009A73C3F8002107F52673A3F59A73D3F883
:103F50000031D7F88822517807F52672A2F59A72B7
:103F6000D15407F52673A3F59A73D3F800315A1C80
:103F700007F52673A3F59A73C3F8002107F5267396
:103F8000A3F59A73D3F8003107F5B27213440C22EB
:103F90006B49184614F01AFC034687F8973297F8D5
:103FA0009732002B08D0644900200EF001FB6349D2
:103FB00000200EF0FDFAB8E007F52673A3F59A731A
:103FC000D3F8003103F10C0207F52673A3F59A73B9
:103FD000C3F80021D7F888329B881A465949002037
:103FE0000EF0E6FA554900200EF0E2FAD7F88832D2
:103FF0009B881B021AB2D7F888329B881B0A9BB297
:104000001BB213431BB29AB207F52673A3F28223A5
:104010001A8007F52673A3F59A73D3F8003107F5D4
:10402000B272134407F1160202215C2006F0DEFD95
:10403000C7F89002D7F89032002B03D1012387F8FC
:10404000973272E007F52673A3F59A73D3F800212F
:10405000D7F890321A4407F52673A3F59A73C3F87C
:104060000021D7F8883203F5497107F5B27207F1DC
:10407000600300934023D7F8880202F055FC07F153
:10408000600107F118031022184614F09FFB07F592
:104090002673A3F5207310225A64D7F8883203F2EE
:1040A0003B13C7F87C32D7F88832B933C7F8783277
:1040B000D7F888321833C7F88032D7F888321033EF
:1040C000C7F8843207F51A7207F51E7107F1180355
:1040D000184602F0D7FC034687F8973297F89732D4
:1040E000002B08D0184900200EF062FA1349002076
:1040F0000EF05EFA19E007F52673A3F526731B6828
:10410000413307F51A711022184614F084FB034658
:1041100087F88F3297F88F32002B03D0002387F86F
:10412000973202E0012387F8973297F897321846C2
:1041300007F52777BD4690BD6C5503003055030049
:1041400090550300A0550300B455030080B584B01A
:1041500000AF786039600023FB60FB680133FB60CF
:10416000FB680133FB607B685B781A46FB6813448D
:10417000FB60FB680133FB60FB680133FB60386860
:104180007A68FB6813444022194614F01FFB3B6811
:104190004022C3F8002100BF1037BD4680BDFFFF9D
:1041A00080B5A2B000AFF860B9607A60012387F8EB
:1041B00087300023C7F8803007F110031A46B9682A
:1041C000F86800F031F8034687F8873097F88730B1
:1041D000002B08D0114900200EF0EAF91049002008
:1041E0000EF0E6F914E007F110031946786806F0BE
:1041F0000AFCC7F88000D7F88030002B08D10949A5
:1042000000200EF0D5F9064900200EF0D1F900BFCC
:1042100000BF18468837BD4680BD00BFD05503009B
:10422000EC550300F055030080B5CAB000AF07F5A8
:104230009473A3F58E73186007F59473A3F59073C8
:10424000196007F59473A3F592731A60002387F839
:1042500027310023C7F81C3107F59473A3F58C733D
:104260009D4A1A6007F59473A3F5907207F594734D
:10427000A3F58E731168186801F0B8F9C7F8180132
:10428000D7F81831002B00F01F81D7F8183103F14F
:10429000100107F11402D7F81C3113440A46082113
:1042A0004D2006F0A3FCC7F81C01D7F81C31002BE9
:1042B00003D1012387F8273106E107F59473A3F5AD
:1042C0008A73D7F81C21C3F80021D7F8183103F5F9
:1042D000BE7107F59473A3F58A73D3F8003107F123
:1042E000140213440A462021862006F07FFCC7F8FA
:1042F0001C01D7F81C31002B03D1012387F827318B
:10430000E2E007F59473A3F58A73D3F80021D7F898
:104310001C311A4407F59473A3F58A73C3F800217E
:10432000D7F8183103F1FA0107F59473A3F58A73EE
:10433000D3F8003107F1140213440A4620218720E4
:1043400006F054FCC7F81C01D7F81C31002B03D130
:10435000012387F82731B7E007F59473A3F58A7333
:10436000D3F80021D7F81C311A4407F59473A3F54C
:104370008A73C3F80021D7F8183103F1180107F543
:104380009473A3F58A73D3F8003107F11402134430
:104390000A4610214C2006F029FCC7F81C01D7F86A
:1043A0001C31002B03D1012387F827318CE007F55E
:1043B0009473A3F58A73D3F80021D7F81C311A44FB
:1043C00007F59473A3F58A73C3F8002107F5947376
:1043D000A3F58A73D3F8003107F11402134407F1EF
:1043E00010020421932006F001FCC7F81C01D7F845
:1043F0001C31002B03D1012387F8273164E007F536
:104400009473A3F58A73D3F80021D7F81C311A44AA
:1044100007F59473A3F58A73C3F800212F49002090
:104420000EF0C6F82E4900200EF0C2F80023C7F89F
:10443000203110E007F59473A3F58A72D7F8203184
:1044400013441B78194627482FF0A4FED7F82031D3
:104450000133C7F8203107F59473A3F58A73D3F8B5
:104460000021D7F820319A42E4D807F59473A3F5D8
:104470008A73D3F800311A461B4900200EF098F8D1
:10448000174900200EF094F8D7F8183103F12802EC
:1044900007F59473A3F592731B68053307F11401B4
:1044A000D7F8180101F0EEFF034687F8273197F897
:1044B0002731002B08D00D4900200EF079F808496B
:1044C00000200EF075F800BF97F82731184607F561
:1044D0009477BD4680BD00BF415D95690C560300D1
:1044E000EC55030020560300285603003056030005
:1044F000F0B5ADF2D44D06AF07F59763A3F2AC4328
:10450000186007F59763A3F59663196007F597633D
:10451000A3F2B4431A60002387F8B73407F5976312
:10452000A3F2AC431B68C7F87C340023A7F87A34A5
:104530000023C7F874340023C7F8703407F5976375
:10454000A3F2A443DB4A1A6007F59763A3F59662CA
:1045500007F59763A3F2AC431168186801F046F8B9
:10456000C7F87C04D7F87C34002B00F08F87D7F88D
:104570007C3403F27B1107F585634122184614F061
:1045800025F9034687F8B73497F8B734002B09D0DC
:10459000C94900200EF00CF8C84900200EF008F8B8
:1045A00000F074BF4123C7F86C340023C7F8B0345F
:1045B00013E007F58562D7F8B03413441B781A4628
:1045C000BF4900200DF0F4FFBC4900200DF0F0FFC2
:1045D000D7F8B0340133C7F8B034D7F86C24D7F823
:1045E000B0349A42E5D8D7F86C341A46B549002061
:1045F0000DF0DEFFB14900200DF0DAFFD7F87C3472
:1046000003F17002D7F87C3403F11800D7F87C343A
:1046100003F5DE7307F5856100930346D7F87C0444
:1046200001F0B4FD034687F8B73497F8B734002B90
:1046300009D0A54900200DF0BBFFA04900200DF0D6
:10464000B7FF00F023BFA14900200DF0B1FF9B4947
:1046500000200DF0ADFF9E4900200DF0A9FF974905
:1046600000200DF0A5FF0023C7F8AC3415E0D7F803
:104670007C24D7F8AC34134403F5DE731B781A4658
:104680008F4900200DF094FF8C4900200DF090FF21
:10469000D7F8AC340133C7F8AC34D7F87C34D3F84E
:1046A0000022D7F8AC349A42E1D8D7F87C34D3F85A
:1046B00000321A46834900200DF07AFF7F4900201E
:1046C0000DF076FFD7F87C3403F1FA0107F5497352
:1046D0002022184614F07AF8034687F8B73497F882
:1046E000B734002B09D0744900200DF061FF7349E5
:1046F00000200DF05DFF00F0C9BE07F59763A3F53C
:10470000CA732022C3F8002107F59763A3F5CA7383
:10471000D3F8003107F54972D018D7F87C3403F587
:10472000BE732022194614F051F8034687F8B734B7
:1047300097F8B734002B09D05F4900200DF038FFFF
:104740005E4900200DF034FF00F0A0BE07F597632E
:10475000A3F5CA73D3F8003103F1200207F597637C
:10476000A3F5CA73C3F8002107F59763A3F5CA73CD
:10477000D3F8003107F54972D018D7F87C341833D4
:104780001022194614F022F8034687F8B73497F838
:10479000B734002B09D0484900200DF009FF4749E4
:1047A00000200DF005FF00F071BE07F59763A3F53B
:1047B000CA73D3F8003103F1100207F59763A3F52C
:1047C000CA73C3F8002107F59763A3F5CA73D3F83A
:1047D000003107F59762A2F5CA725E21D15407F540
:1047E0009763A3F5CA73D3F800315A1C07F5976392
:1047F000A3F5CA73C3F8002107F59763A3F5CA733D
:10480000D3F80031D7F87C24117807F59762A2F528
:10481000CA72D15407F59763A3F5CA73D3F8003170
:104820005A1C07F59763A3F5CA73C3F8002107F56F
:104830009763A3F5CA73D3F80031D7F87C24517875
:1048400007F59762A2F5CA72D15407F59763A3F5ED
:10485000CA73D3F800315A1C07F59763A3F5CA73DE
:10486000C3F8002107F59763A3F5CA73D3F80031A5
:10487000C7F8743407F59763A3F5CA73D3F800310A
:1048800007F54972134408221249184613F09EFF97
:10489000034687F8B73497F8B734002B1CD0064985
:1048A00000200DF085FE054900200DF081FE00F08E
:1048B000EDBD00BF4E887B4C4C560300EC55030009
:1048C00020560300285603005C5603007C56030064
:1048D0009C560300A856030007F59763A3F5CA7317
:1048E000D3F8003103F1080207F59763A3F5CA7303
:1048F000C3F80021D7F87C349B881A46C0490020B1
:104900000DF056FEBF4900200DF052FED7F87C3462
:104910009B881B021AB2D7F87C349B881B0A9BB277
:104920001BB213431BB29AB207F59763A3F2A643D7
:104930001A8007F59763A3F5CA73D3F8003107F51A
:104940004972134407F1120202215C2006F04EF96D
:10495000C7F87004D7F87034002B04D1012387F80E
:10496000B73400F093BD07F59763A3F5CA73D3F886
:104970000021D7F870341A4407F59763A3F5CA737A
:10498000C3F80021A04900200DF012FE9D4900202F
:104990000DF00EFE0023C7F8A83415E007F5976365
:1049A000A3F5CA72D7F8A83413441B781A4697495E
:1049B00000200DF0FDFD934900200DF0F9FDD7F822
:1049C000A8340133C7F8A83407F59763A3F5CA7371
:1049D000D3F80021D7F8A8349A42DFD807F59763B7
:1049E000A3F5CA73D3F800311A46894900200DF0A7
:1049F000DFFD844900200DF0DBFDD7F87C3403F5A2
:104A0000DE7107F5497207F1180300935023D7F8B8
:104A10007C0401F089FF034687F8B73497F8B73470
:104A2000002B09D07B4900200DF0C2FD7549002004
:104A30000DF0BEFD00F02ABD774900200DF0B8FD55
:104A4000704900200DF0B4FD0023C7F8A43423E022
:104A5000D7F8A43403F00F03002B07D16F490020CF
:104A60000DF0A6FD674900200DF0A2FD07F5976344
:104A7000A3F59462D7F8A43413441B781A4663490B
:104A800000200DF095FD5F4900200DF091FDD7F855
:104A9000A4340133C7F8A434D7F8A4344F2BD7DD9E
:104AA000584900200DF084FD564900200DF080FD8E
:104AB000D7F87C3403F50170B7F87A3407F118029F
:104AC00013441022194613F081FE034687F8B734C9
:104AD00097F8B734002B09D0514900200DF068FD3C
:104AE000484900200DF064FD00F0D0BCD7F87C34BC
:104AF0001022C3F84822B7F87A341033A7F87A3472
:104B0000D7F87C3403F51370B7F87A3407F118023C
:104B100013441022194613F059FE034687F8B734A0
:104B200097F8B734002B09D03D4900200DF040FD27
:104B3000344900200DF03CFD00F0A8BCD7F87C34CF
:104B40001022C3F89022B7F87A341033A7F87A34D9
:104B5000D7F87C3403F52570B7F87A3407F11802DA
:104B600013441022194613F031FE034687F8B73478
:104B700097F8B734002B09D0294900200DF018FD13
:104B8000204900200DF014FD00F080BCD7F87C34E3
:104B90001022C3F8D822B7F87A341033A7F87A3441
:104BA000D7F87C3403F55B70B7F87A3407F1180254
:104BB00013442022194613F009FE034687F8B73440
:104BC00097F8B734002B09D0154900200DF0F0FC00
:104BD0000C4900200DF0ECFC00F058BCD7F87C34F8
:104BE0002022C3F8B0230F4900200DF0E1FC054955
:104BF00000200DF0DDFC0023C7F8A0342AE000BF40
:104C0000B4560300EC550300C856030020560300B9
:104C100028560300F05603000857030020570300EE
:104C20004C56030024570300D7F87C24D7F8A0344F
:104C3000134403F55B731B781A46844900200DF07A
:104C4000B7FC834900200DF0B3FCD7F8A034013342
:104C5000C7F8A034D7F87C34D3F8B023D7F8A03401
:104C60009A42E1D87A4900200DF0A2FC7849002050
:104C70000DF09EFC07F59763A3F5CA73D7F874246B
:104C8000C3F8002107F59763A3F5CA73D3F8003181
:104C900007F5497213440A226E49184613F096FD2F
:104CA000034687F8B73497F8B734002B08D06A4921
:104CB00000200DF07DFC664900200DF079FCE5E355
:104CC00007F59763A3F5CA73D3F8003103F10A021D
:104CD00007F59763A3F5CA73C3F80021D7F87C34AE
:104CE0009B881A465D4900200DF062FC584900205F
:104CF0000DF05EFC07F59763A3F5CA73D3F8003196
:104D000007F54972134407F1120202215C2005F0F5
:104D10006DFFC7F87004D7F87034002B03D101235E
:104D200087F8B734B2E307F59763A3F5CA73D3F8EE
:104D30000021D7F870341A4407F59763A3F5CA73B6
:104D4000C3F80021464900200DF032FC4049002004
:104D50000DF02EFC0023C7F89C3415E007F597638F
:104D6000A3F5CA72D7F89C3413441B781A46374906
:104D700000200DF01DFC364900200DF019FCD7F87D
:104D80009C340133C7F89C3407F59763A3F5CA73C5
:104D9000D3F80021D7F89C349A42DFD807F59763FF
:104DA000A3F5CA73D3F800311A462E4900200DF03E
:104DB000FFFB274900200DF0FBFBD7F87C3403F5FF
:104DC000DE7107F5497207F1180300932023D7F825
:104DD0007C0401F0A9FD034687F8B73497F8B7348F
:104DE000002B08D0204900200DF0E2FB18490020DC
:104DF0000DF0DEFB4AE3D7F87C3403F5497307F185
:104E000018012022184613F0E1FC034687F8B73456
:104E100097F8B734002B08D00F4900200DF0C8FBDD
:104E20000B4900200DF0C4FB30E3D7F87C3420227E
:104E3000C3F868230D4900200DF0BAFB0449002097
:104E40000DF0B6FB0023C7F8983428E02056030085
:104E5000EC5503002C5703004C560300B4560300D6
:104E600038570300605703006C5703008457030052
:104E700007F59763A3F2B4431A68D7F8983413443C
:104E80001B781A46C94900200DF092FBC849002042
:104E90000DF08EFBD7F898340133C7F8983407F536
:104EA0009763A3F2B4431B68D3F80021D7F8983472
:104EB0009A42DDD807F59763A3F2B4431B68D3F891
:104EC00000311A46BB4900200DF072FBB8490020A2
:104ED0000DF06EFB07F59763A3F2B4431B68D3F89C
:104EE000003107F59762A2F2B4421268D01807F5B4
:104EF0009763A3F2B4431B6803F582730822194633
:104F000013F064FC034687F8B73407F59763A3F200
:104F1000B4431B68D3F8003103F1080207F5976327
:104F2000A3F2B4431B68C3F8002197F8B734002BF1
:104F300040F0AB82D7F87C3400229A709E49002062
:104F40000DF036FB9A4900200DF032FB07F5976310
:104F5000A3F2B4431B680022A3F80C21D7F87C34D9
:104F600003F50174D7F87C3403F5257507F59763CD
:104F7000A3F2B4431E68D7F87C349B78D7F87C241E
:104F800002F56D72D7F87C1401F5717107F5976021
:104F9000A0F2B4400068B0F80C01049007F58E70E0
:104FA000039002910192009333462A462146D7F896
:104FB0007C0401F061FE034687F8B73497F8B734F4
:104FC000002B08D07D4900200DF0F2FA784900202E
:104FD0000DF0EEFA5AE27A4900200DF0E9FA744930
:104FE00000200DF0E5FA0023C7F8943415E007F52A
:104FF0009763A3F56772D7F8943413441B781A4665
:105000006A4900200DF0D4FA694900200DF0D0FA69
:10501000D7F894340133C7F8943407F59763A3F5B0
:105020006773D3F80021D7F894349A42DFD807F594
:105030009763A3F56773D3F800311A465D490020E2
:105040000DF0B6FA5A4900200DF0B2FA5D49002081
:105050000DF0AEFA564900200DF0AAFA0023C7F869
:10506000903415E0D7F87C24D7F89034134403F536
:1050700071731B781A464D4900200DF099FA4C497E
:1050800000200DF095FAD7F890340133C7F890342A
:10509000D7F890340F2BE5DD1022464900200DF0A3
:1050A00087FA434900200DF083FA474900200DF0AC
:1050B0007FFA3F4900200DF07BFA0023C7F88C34BB
:1050C00018E007F59763A3F2B4431A68D7F88C3455
:1050D000134403F582731B781A46344900200DF0FF
:1050E00067FA334900200DF063FAD7F88C340133A6
:1050F000C7F88C34D7F88C34072BE2DD08222D4911
:1051000000200DF055FA2A4900200DF051FA07F55C
:10511000087207F58E7311461846FFF717F807F562
:1051200049734FF48272002118462FF02DF90023A5
:10513000C7F87034D7F87C3403F1100107F54972D1
:10514000D7F8703413440A4608214D2005F04EFD6F
:10515000C7F87004D7F87034002B03D1012387F807
:10516000B73493E107F59763A3F5CA73D7F87024B2
:10517000C3F80021D7F87C3403F5BE7107F59763B7
:10518000A3F5CA73D3F8003107F5497213440A46F0
:105190002021862005F02AFDC7F87004D7F8703466
:1051A000002B13D1012387F8B7346FE12056030099
:1051B000EC55030028560300985703004C56030093
:1051C000AC570300BC570300C857030007F59763AB
:1051D000A3F5CA73D3F80021D7F870341A4407F541
:1051E0009763A3F5CA73C3F80021D7F87C3403F1A1
:1051F000FA0107F59763A3F5CA73D3F8003107F5F1
:10520000497213440A462021872005F0EFFCC7F8B5
:105210007004D7F87034002B03D1012387F8B7341A
:1052200034E107F59763A3F5CA73D3F80021D7F8E3
:1052300070341A4407F59763A3F5CA73C3F80021C5
:10524000D7F87C3403F1180107F59763A3F5CA7307
:10525000D3F8003107F5497213440A4610214C2057
:1052600005F0C4FCC7F87004D7F87034002B03D1E4
:10527000012387F8B73409E107F59763A3F5CA73EB
:10528000D3F80021D7F870341A4407F59763A3F5D3
:10529000CA73C3F8002107F59763A3F5CA73D3F85F
:1052A000003107F54972134407F1140204219320D9
:1052B00005F09CFCC7F87004D7F87034002B03D1BC
:1052C000012387F8B734E1E007F59763A3F5CA73C4
:1052D000D3F80021D7F870341A4407F59763A3F583
:1052E000CA73C3F80021D7F87C3403F59D7107F524
:1052F00085634122184613F069FA034687F8B734EC
:1053000097F8B734002B08D0644900200DF050F90D
:10531000634900200DF04CF9B8E04123C7F86C3424
:10532000604900200DF044F95D4900200DF040F97E
:105330000023C7F8883415E007F59763A3F5CA7210
:10534000D7F8883413441B781A46574900200DF0CB
:105350002FF9534900200DF02BF9D7F88834013389
:10536000C7F8883407F59763A3F5CA73D3F800210B
:10537000D7F888349A42DFD807F59763A3F5CA7344
:10538000D3F800311A46494900200DF011F944497B
:1053900000200DF00DF9464900200DF009F94049B3
:1053A00000200DF005F90023C7F8843413E007F559
:1053B0008562D7F8843413441B781A463A49002092
:1053C0000DF0F6F8364900200DF0F2F8D7F88434E5
:1053D0000133C7F88434D7F86C24D7F884349A4260
:1053E000E5D8D7F86C341A46304900200DF0E0F8C3
:1053F0002B4900200DF0DCF82E4900200DF0D8F8E4
:10540000274900200DF0D4F80023C7F8803415E0B8
:1054100007F59763A3F52672D7F8803413441B78F9
:105420001A46214900200DF0C3F81D4900200DF057
:10543000BFF8D7F880340133C7F8803407F5976395
:10544000A3F52673D3F80021D7F880349A42DFD829
:1054500007F59763A3F52673D3F800311A4613496D
:1054600000200DF0A5F80E4900200DF0A1F807F579
:10547000087307F5497207F58561D7F87C0401F0D8
:1054800017F9034687F8B73400E000BF97F8B73440
:10549000184607F2BC47BD46F0BD00BF4C5603009E
:1054A000EC550300DC570300205603002856030088
:1054B000F85703000C58030080B586B000AFF860C1
:1054C000B9607A600123FB75B968F86800F08EF85E
:1054D00038613B69002B06D03B6903F55B727B6842
:1054E0001A600023FB75FB7D18461837BD4680BD4A
:1054F00080B487B000AFF860B96011461A460B4619
:10550000FB711346BB7100237B613B6A80221A70DA
:105510003B6A01333C221A703B6A0233FA791A70F3
:105520003B6A0333BA791A70042318461C37BD4608
:105530005DF8047B7047FFFFB0B59AB000AF7860AC
:105540003960224B07F148041D460FCD0FC495E882
:105550000F0084E80F001E4B07F128041D460FCDF5
:105560000FC495E80F0084E80F001A4B07F10804F8
:105570001D460FCD0FC495E80F0084E80F00164BB1
:10558000042283F8B82007F1480320221946134863
:1055900013F01CF907F1280320221946104813F0D4
:1055A00015F907F10803202219460E4813F00EF9E9
:1055B000094B2022DA66412279680B4813F006F97C
:1055C000002318466837BD46B0BD00BF1C58030015
:1055D0003C5803005C580300101E0020C91E002028
:1055E000E91E0020381E00204A1F002080B483B02E
:1055F00000AF78603960034B18460C37BD465DF844
:10560000047B7047101E0020F0B5ADF5297D06AF74
:1056100007F52273A3F51F73186007F52273A3F52E
:105620002073196007F52273A3F521731A60002314
:1056300087F88732002387F886320023C7F8803244
:105640000023C7F87C3207F52273A3F508738C4A50
:105650001A6007F52273A3F519738A4A1846114692
:1056600041231A462EF00DFF07F52273A3F5207291
:1056700007F52273A3F51F7311681868FFF7B6FFCB
:10568000C7F87802D7F87832002B00F0F280D7F80C
:1056900078329B780133DAB2D7F878329A70D7F83B
:1056A00078329B7887F8863207F1680107F5B8737E
:1056B0000422184613F08AF8034687F8873297F8D1
:1056C0008732002B08D0704900200CF071FF6F4921
:1056D00000200CF06DFFCCE00423C7F8803207F502
:1056E0002273A3F58C730422C3F8002107F5B87266
:1056F000D7F88032134407F124014122184613F0F1
:1057000065F8034687F8873297F88732002B08D070
:105710005D4900200CF04CFF5C4900200CF048FF74
:10572000A7E0D7F880324133C7F8803207F52273FB
:10573000A3F58C73D3F8003103F1410207F522730E
:10574000A3F58C73C3F80021D7F8803203F00F0360
:10575000C3F11003C7F8743207F52273A3F51D7364
:1057600000221A60043300221A605A609A6007F51A
:105770002273A3F51D7380221A7007F52273A3F517
:105780008C73D3F8003107F5B872134407F1140194
:10579000D7F87422184613F019F8034687F88732B1
:1057A00007F52273A3F58C73D3F80021D7F8743270
:1057B0001A4407F52273A3F58C73C3F80021002364
:1057C000C7F87C32D7F8783203F50174D7F878320D
:1057D00003F51375D7F8783203F56D73D7F878228F
:1057E00002F5717207F52271A1F52171096808317E
:1057F00007F5B876D7F87C020490039102920193E2
:1058000097F88632009333462A462146D7F8780225
:1058100001F002FD034687F8873297F88732002BA4
:1058200008D01B4900200CF0C3FE184900200CF0E2
:10583000BFFE1EE007F52273A3F521731B6803F575
:105840008670D7F8783203F571730822194612F082
:10585000BDFF034687F8873297F88732002B08D0C0
:10586000094900200CF0A4FE084900200CF0A0FE1D
:1058700000BF97F88732184607F52377BD46F0BD7D
:1058800008A43000A85803007C5803008C5803007B
:105890009058030080B487B000AFF860B9607A60B8
:1058A0003B600023FB75FB7D18461C37BD465DF849
:1058B000047B704780B5CCB000AF07F59873A3F5B3
:1058C0009273186007F59873A3F59473196007F540
:1058D0009873A3F596731A600023C7F82C3101233F
:1058E00087F82B3107F1100207F59873A3F594712F
:1058F00007F59873A3F5927309681868FFF784FE9B
:10590000034687F82B3197F82B31002B08D0144928
:1059100000200CF04DFE134900200CF049FE18E069
:1059200007F1100207F59873A3F5967311461868EE
:1059300005F0E7F8C7F82C01D7F82C31002B08D177
:10594000094900200CF034FE064900200CF030FE1E
:1059500000BFD7F82C31184607F59877BD4680BDB3
:10596000EC5803008C5803000859030080B487B03A
:1059700000AFF8600B467A60FB720023FB757B6812
:10598000A0225A727B6800225A727B6800225A72E7
:105990007B6808225A727B6809225A727B6843220C
:1059A0005A727B6843225A727B6843225A727B6820
:1059B00044225A727B684B225A727B6841225A7287
:1059C0007B6876225A727B6831225A72FB7D1846B8
:1059D0001C37BD465DF8047B704780B586B000AFCC
:1059E000F860B9607A603B600023FB75B968F868BD
:1059F000FFF7FCFD38613B69002B03D07B685A88B8
:105A00003B699A80FB7D18461837BD4680BD80B53E
:105A100086B000AFF860B9607A600123FB75B968A1
:105A2000F868FFF7E3FD38613B69002B12D03B6952
:105A300003F575731A461021F86800F075F90346EE
:105A4000FB75FB7D002B07D13B6903F575727B6805
:105A50001A6002E000BF00E000BFFB7D1846183767
:105A6000BD4680BD90B5ADF51B7D00AF07F51A743E
:105A7000A4F51774206007F51A70A0F5187001607E
:105A800007F51A71A1F519710A6007F51A72A2F5E6
:105A90001A721360012387F8673207F506734822EC
:105AA000002118462EF070FC07F51A73A3F5AA73AF
:105AB00018464FF482731A4600212EF065FC07F554
:105AC0001A73A3F5167318464FF482731A46002111
:105AD0002EF05AFC07F51A73A3F5187207F51A731E
