:10000000907B002091460100AD430100A146010014
:10001000A1460100A1460100A1460100A146010040
:100020000000000000000000000000002127010087
:10003000A1460100000000005D270100CD2701005E
:10004000013F0100DF3701002B380100A938010012
:100050004139010000000000000000000000000025
:100060000000000000000000000000000000000090
:100070000000000000000000000000000000000080
:100080000000000000000000000000000000000070
:100090000000000000000000000000000000000060
:1000A0000000000000000000000000000000000050
:1000B0000000000000000000000000000000000040
:1000C0000000000000000000000000000000000030
:1000D0000000000000000000000000000000000020
:1000E0000000000000000000000000000000000010
:1000F0000000000000000000000000000000000000
:1001000000000000000000000000000000000000EF
:1001100000000000000000000000000000000000DF
:1001200000000000000000000000000000000000CF
:1001300000000000000000000000000000000000BF
:1001400000000000000000000000000000000000AF
:10015000000000000000000000000000000000009F
:10016000000000000000000000000000000000008F
:10017000000000000000000000000000000000007F
:10018000000000000000000000000000000000006F
:10019000000000000000000000000000000000005F
:1001A000000000000000000000000000000000004F
:1001B000000000000000000000000000000000003F
:1001C000FFFFFFFFFFFFFFFFFFFFFFFFFFFFFFFF3F
:1001D000FFFFFFFFFFFFFFFFFFFFFFFFFFFFFFFF2F
:1001E000FFFFFFFFFFFFFFFFFFFFFFFFFFFFFFFF1F
:1001F000FFFFFFFFFFFFFFFFFFFFFFFFFFFFFFFF0F
:100200000348044B834202D0034B03B118477047A5
:100210009C1D00209C1D002000000000064B07498B
:10022000C91A891048BF0131491003D0044B0BB1E2
:1002300001481847704700BF9C1D00209C1D0020EE
:100240000000000010B5064C237843B9FFF7D8FF33
:10025000044B13B10448AFF300800123237010BD99
:10026000B81D002000000000A80D040008B5054BD3
:100270001BB105490548AFF30080BDE80840FFF712
:10028000CDBF00BF00000000BC1D0020A80D040071
:1002900080B582B000AF0123FB7116F035FE034636
:1002A000FB71FB7918460837BD4680BD80B584B028
:1002B00000AF0123FB730023BB600023FB7116F02A
:1002C000F1FE0346FB7300F061F8B860B86816F001
:1002D000B5FE0346FB73FB79184616F0BCFE0346D9
:1002E000FB73FB7B18461037BD4680BD80B582B0DE
:1002F00000AF0123FB7116F0D5FE0346FB7100230E
:1003000018460837BD4680BD80B584B000AF0123D4
:10031000FB730023BB600123FB7116F0C3FE034691
:10032000FB7300F033F8B860B86816F087FE034638
:10033000FB73FB79184616F08EFE0346FB73FB7BBE
:1003400018461037BD4680BD80B582B000AF01238E
:10035000FB7116F0A7FE0346FB7100231846083711
:10036000BD4680BD80B586B000AFF860B9607A60E8
:100370000123FB757A68B968F86816F07AFE0346BF
:10038000FB75FB7D18461837BD4680BD80B483B031
:1003900000AF81237B607B6818460C37BD465DF853
:1003A000047B704780B483B000AF786001231846A7
:1003B0000C37BD465DF8047B7047FFFF80B400AF8B
:1003C000024B1846BD465DF8047B7047D41D0020E3
:1003D00080B586B000AFF860B9607A60FFF7EEFFD5
:1003E00078617B69FA681A607B69BA689A607B6990
:1003F0000E4ADA607B690E4A1A617B690D4A5A61BE
:100400007B690C337A681946786916F08DFE38617D
:100410007B693A695A607B6900229A617B69002294
:100420001A777B6918461837BD4680BD75050000F0
:10043000ED0500002506000080B584B000AF7860AF
:1004400039600123FB737B68BB60BB685B683968FC
:10045000184616F0E1FE0346FB73FB7B1846103787
:10046000BD4680BD80B584B000AF78600123FB73CA
:100470007B68BB60BB6801221A77BB685B68184663
:1004800016F002FF0346FB73FB7B18461037BD4690
:1004900080BD80B584B000AF78600123FB737B68BA
:1004A000BB60BB6800221A77BB685B68184616F011
:1004B0003FFF0346FB73FB7B18461037BD4680BDEC
:1004C00080B584B000AF78600123FB737B68BB60AC
:1004D000BB6800221A77BB685B68184616F0D4FE2A
:1004E0000346FB73FB7B18461037BD4680BD80B5C5
:1004F00084B000AF78600123FB737B68BB60BB688E
:100500005B68184616F014FF0346FB73FB7B184626
:100510001037BD4680BD80B584B000AF78603960CB
:100520000123FB737B68BB60BB685B683968184656
:1005300016F0B2FF0346FB73FB7B18461037BD462F
:1005400080BD80B586B000AFF860B9607A603B606E
:10055000FB687B610123FB747B6958683B687A68A0
:10056000B96816F0F7FE0346FB74FB7C1846183793
:10057000BD4680BD90B589B002AFF860B9607A60C1
:100580007B687B617B69FA689A617B699B681B6801
:10059000002B20D0124833F0F5FD124833F062FEF4
:1005A0007B691B7F012B0BD17B699B681C687B6976
:1005B0001B6800930C4BBA68F9680220A0470AE058
:1005C0007B699B681C687B691B680093064BBA6853
:1005D000F9680320A04700BF1C37BD4690BD00BF8F
:1005E00044550300585503005C55030080B584B0A2
:1005F00000AF786039603B68FB60FB689B685B68B4
:10060000002B07D0FB689B685B68FA68126811468C
:1006100078689847FB6800229A6100BF1037BD4692
:1006200080BDFFFF90B587B000AFF860B9607A6019
:100630003B600D4833F0A6FD0C4833F013FEBB6859
:100640007B617B699B689B68002B08D07B699B68FA
:100650009C687B6919683B687A68F868A04700BFA6
:100660001C37BD4690BD00BF6855030058550300B8
:1006700080B584B000AF786039603B68BB60002310
:10068000FB737B68002B13D0BB68002B10D0BB68BA
:100690009B697A681946094833F074FD084833F0BD
:1006A000E1FDBB689B697A689A4201D10123FB7323
:1006B000FB7B18461037BD4680BD00BF8055030048
:1006C0005855030080B586B000AF786039600023CC
:1006D0007B6100233B610023FB600123FB723A48EE
:1006E00033F0C0FD394833F0BDFD00F02DFA38611C
:1006F0003B69002B63D03B6900221A71344833F008
:10070000B1FD324833F0AEFD7B68002B26D100F0FE
:1007100025FAF860FB68002B51D03B69FA689A60B3
:100720002C4833F09FFD294833F09CFD386900F0D8
:1007300031FA0346FB72FB7A002B40D1264833F096
:1007400091FD224833F08EFDFFF7A2FD0346FB72B8
:10075000FB7A002B33D10023FB7228E07B68022B4D
:1007600002D07B68032B1BD13B690C337A68194696
:100770003868FFF72DFE02463B69DA613B69DB69A9
:10078000002B06D0154833F06DFD104833F06AFD9C
:100790000DE0134833F066FD0C4833F063FD0EE0C6
:1007A000104833F05FFD094833F05CFD07E03B691A
:1007B0003A681A603B6901221A713B697B617B6967
:1007C00018461837BD4680BDA4550300C055030028
:1007D000C4550300E05503000056030024560300EF
:1007E000385603004C56030080B584B000AF7860E3
:1007F00039600123FB733B68BB60BB68002B07D0EB
:10080000BB68DB6979681846FFF716FE0346FB7381
:10081000FB7B18461037BD4680BD80B485B000AF65
:10082000786039607B68FB60FB683A68DA600023B7
:1008300018461437BD465DF8047B704780B485B018
:1008400000AF786039607B68FB60FB683A681A61CA
:10085000002318461437BD465DF8047B7047FFFF40
:1008600080B584B000AF786039600123FB737B688A
:10087000BB60BB68002B19D03B68002B04D1FFF78D
:1008800015FD0346FB7311E03B68032B07D1BB68E2
:10089000DB691846FFF7E6FD0346FB7306E00648F2
:1008A00033F0E0FC054833F0DDFC00BFFB7B18466D
:1008B0001037BD4680BD00BF4C560300C055030035
:1008C00080B584B000AF786039600123FB737B682A
:1008D000BB60BB68002B19D03B68002B04D1FFF72D
:1008E00005FD0346FB7311E03B68032B07D1BB6892
:1008F000DB691846FFF7CDFD0346FB7306E00648AB
:1009000033F0B0FC054833F0ADFC00BFFB7B18466C
:100910001037BD4680BD00BF4C560300C0550300D4
:1009200080B584B000AF786039600123FB737B68C9
:10093000BB60BB68002B20D03B68002B06D1FFF7C3
:10094000E3FC0346FB73FB7B002B16E03B68022BAA
:1009500002D03B68032B09D1BB68DB691846FFF75F
:10096000AFFD0346FB73FB7B002B06E0054833F02D
:1009700079FC054833F076FC00BFFB7B1846103746
:10098000BD4680BD4C560300C055030080B584B001
:1009900000AF786039600123FB737B68BB60BB6884
:1009A000002B1CD03B68002B04D1FFF7CDFC034685
:1009B000FB7314E03B68022B02D03B68032B07D18A
:1009C000BB68DB691846FFF792FD0346FB7306E040
:1009D000054833F047FC054833F044FC00BFFB7B7F
:1009E00018461037BD4680BD4C560300C055030065
:1009F00080B586B000AF78600123FB754FF0FF3300
:100A00003B6100F0E1F8F860F968786800F0E6F81A
:100A100038613B69002B06D1114833F0B3FB114814
:100A200033F020FC14E03B69032B11D1FB68DB6938
:100A300079681846FFF76FFD0346FB75FB7D002BB9
:100A400006D0094833F09EFB064833F00BFC01E06A
:100A50000023FB75FB7D18461837BD4680BD00BFDF
:100A600060560300C05503008456030080B588B06B
:100A700000AFF860B9607A603B600123FB774FF00C
:100A8000FF33BB611B4833F07DFB1B4833F0EAFBAF
:100A9000FB68002B29D0BB68002B26D000F094F80F
:100AA00078617969F86800F099F8B861BB69002B42
:100AB00007D17A68B968F868FFF754FC0346FB77FA
:100AC00013E0BB69032B09D10C4BD8697B68BA686A
:100AD000F968FFF736FD0346FB7706E0084833F078
:100AE000C1FB054833F0BEFB00BFFB7F1846203733
:100AF000BD4680BD9C560300C0550300F41D002078
:100B00004C56030080B485B000AF786039607B68D4
:100B1000FB60FB683A685A61002318461437BD46EB
:100B20005DF8047B704780B485B000AF78603960B1
:100B30007B68FB60FB683A689A61002318461437AB
:100B4000BD465DF8047B704780B400AF024B184689
:100B5000BD465DF8047B7047F41D002080B582B06F
:100B600000AF00237B604FF48871052017F0BEFDB5
:100B700078607B681946054833F004FB044833F07D
:100B800071FB7B6818460837BD4680BDB856030028
:100B9000C055030080B586B002AF786007F10C0342
:100BA00001934FF40063009301237A6804490548D8
:100BB00017F07EFD034618461037BD4680BD00BFC6
:100BC000390C0000CC56030080B400AF024B18462D
:100BD000BD465DF8047B7047F41D002080B584B0ED
:100BE00000AF786039604FF0FF33FB603B68BB605B
:100BF000BB68DB6919467868FFF73AFD0346002BAE
:100C000002D00323FB600EE07868FFF7CBFB0346BE
:100C1000002B02D00023FB6005E0054833F022FBE7
:100C2000044833F01FFBFB6818461037BD4680BDF3
:100C3000E0560300C055030090B5D1B002AF07F5F0
:100C40009C73A3F59A73186007F59C73A3F59A73C8
:100C50001B68C7F83431D7F834319B6807F10802B4
:100C60001146184617F054FD034687F8333197F8BC
:100C70003331002BEFD107F59C73A3F598731B78E4
:100C8000062B00F2EA8001A252F823F0A90C000022
:100C9000090D0000690D0000B10D0000FF0D0000FE
:100CA000250E0000370E00006D4833F06BFA6D48DA
:100CB00033F0D8FA0123C7F8183107F59C73A3F570
:100CC00098735B681A46D7F834311A6216F0EAF95D
:100CD000D7F83431DB68002B0FD0D7F83431DC681B
:100CE000D7F83431196AD7F834311B6800935E4B5A
:100CF000D7F818210020A047B0E05C4833F0B2FAE2
:100D0000584833F0AFFAA9E0594833F03BFA554858
:100D100033F0A8FA0123C7F81C3107F59C73A3F53B
:100D200098735B681A46D7F834311A6216F0BAF92C
:100D3000D7F83431DB68002B0FD0D7F83431DC68BA
:100D4000D7F83431196AD7F834311B680093464B11
:100D5000D7F81C210120A04780E0444833F082FAF4
:100D6000404833F07FFA79E0424833F07BFA3D485F
:100D700033F078FA07F59C73A3F598735B68C7F8AE
:100D80002031D7F834311B69002B0AD0D7F8343121
:100D90001B69D7F8342112681146D7F8200198470B
:100DA0005CE0324833F05EFA2E4833F05BFA55E0EF
:100DB000314833F057FA2B4833F054FA07F59C7357
:100DC000A3F598739B68C7F82C3107F59C73A3F5BE
:100DD00098735B68C7F8283107F108031033C7F828
:100DE0002431D7F834315C69D7F834311968D7F831
:100DF0002C31D7F82421D7F82801A0472EE007F599
:100E00009C73A3F598735B6887F832311B4833F005
:100E100029FA144833F026FA97F83231184616F0BA
:100E20006BF91BE0164833F01DFA0E4833F01AFA3E
:100E300016F040F912E0134833F014FA094833F081
:100E400011FAD7F834319B69D7F83421106AD7F8F2
:100E5000342112681146984700E000BFFBE600BF4E
:100E6000F0560300085703000C57030018570300FF
:100E700034570300485703006057030070570300BE
:100E800088570300A057030080B500AF4FF42472C9
:100E90000021034833F028FB014B184680BD00BFFA
:100EA00000000020B0B5C8B000AF07F59073A3F5FF
:100EB0008E7318600023C7F81C310023C7F818315F
:100EC000012387F817315A4A07F1D403114641220A
:100ED000184633F086FB574A07F19003114641222A
:100EE000184633F07EFB544A07F14C031146412269
:100EF000184633F076FB514B07F12C041D460FCDFD
:100F00000FC495E80F0084E80F0007F59073A3F570
:100F10008A734B4A1C4615460FCD0FC495E80F0047
:100F200084E80F00FFF7B0FFC7F81801D7F81831B1
:100F3000002B6BD0D7F81831C7F81C31D7F818310F
:100F400000221A70D7F8183100225A70D7F81831D9
:100F50002F3310223B49184617F00AFC034687F846
:100F6000173197F81731002B52D1D7F8183103F504
:100F7000867307F190014122184617F0F9FB0346EA
:100F800087F8173197F81731002B43D1D7F818316C
:100F9000CB3307F1D4014122184617F0E9FB034691
:100FA00087F8173197F81731002B35D1D7F818315A
:100FB0006A3307F12C012022184617F0D9FB0346AB
:100FC00087F8173197F81731002B27D1D7F8183148
:100FD0008A3307F14C014122184617F0C9FB03463A
:100FE00087F8173197F81731002B19D1D7F8183136
:100FF0004A3307F10C012022184617F0B9FB0346CB
:1010000087F8173197F81731002B0AE000BF08E086
:1010100000BF06E000BF04E000BF02E000BF00E048
:1010200000BFD7F81C31184607F59077BD46B0BD14
:10103000C4570300085803004C580300905803009D
:10104000B0580300B057030080B586B000AF786099
:1010500039600123FB7507F108031946786800F031
:1010600056FC0346FB75FB7D002B12D13A6807F155
:1010700008031146184600F071F902463B68C3F8B0
:1010800000213B68D3F80031002B03D10123FB750D
:1010900000E000BFFB7D18461837BD4680BD80B517
:1010A0008CB000AF78603960012387F82F3007F1EA
:1010B0000C0320220021184633F016FA07F10C0326
:1010C0001946786800F084FC034687F82F3097F8BB
:1010D0002F30002B13D13A6807F10C031146184644
:1010E00000F0E6F902463B68C3F800213B68D3F8FC
:1010F0000031002B04D1012387F82F3000E000BF1E
:1011000097F82F3018463037BD4680BD80B586B081
:1011100000AF786039600123FB7507F10C030022F2
:101120001A605A6007F10C031946786800F0ACFCAD
:101130000346FB75FB7D002B12D13A6807F10C03C7
:101140001146184600F03AFB02463B68C3F80021FE
:101150003B68D3F80031002B03D10123FB7500E07D
:1011600000BFFB7D18461837BD4680BD80B588B0EE
:1011700000AF786039600123FB770123BB7707F16B
:10118000080300221A605A609A60DA601A613B68AC
:1011900058683B681B7A194607F108031A4600F0A5
:1011A00037F90346BB77BB7F002B0AD107F1080351
:1011B0001946786800F0E0FB0346FB77FB7F002BC5
:1011C00000E000BFFB7F18462037BD4680BD80B5DC
:1011D00084B000AF786039600123FB730023BB60EB
:1011E0000123BB733B6858683B681B7A194607F1BB
:1011F00008031A4600F0B0FA0346BB73BB7B002B12
:101200000AD107F108031946786800F015FC034677
:10121000FB73FB7B002B00E000BFFB7B1846103705
:10122000BD4680BD80B586B000AFF860B96013469A
:10123000FB710123FB7500233B610123BB75BB6878
:101240005868BB681B7A194607F110031A4600F06C
:101250002DFB0346BB75BB7D002B0BD1FA7907F143
:1012600010031946F86800F093FD0346FB75FB7DFB
:10127000002B00E000BFFB7D18461837BD4680BD3F
:1012800080B58AB000AFF860B9603B601346FB716F
:10129000012387F823302E4BBB6100237B620023A0
:1012A000FB750023FB613B68012B01D1294BBB611E
:1012B0003B68022B01D1284BBB61FB79002B03D18A
:1012C000BB6943F40043BB61BB691A0EBB691B02D7
:1012D00003F47F031A43BB691B0A03F47F431A43D9
:1012E000BB691B061343BB61FA687B6A134407F1B1
:1012F00018010422184617F03BFA034687F82330FA
:1013000097F82330002B1BD17B6A04337B62BB68C8
:10131000DBB20833DBB2FB75FA687B6A134407F172
:1013200017010122184617F023FA034687F82330E5
:1013300097F82330002B05D17B6A01337B6202E0F2
:1013400000BF00E000BF7B6A18462837BD4680BD5D
:101350000000D4840000CA840000C08480B586B038
:1013600000AF786039600123FB74284BFB600023D9
:101370007B610023BB74FB681A0EFB681B0203F43D
:101380007F031A43FB681B0A03F47F431A43FB687D
:101390001B061343FB603A687B69134407F10C0199
:1013A0000422184617F0E4F90346FB74FB7C002B7B
:1013B00024D17B6904337B617B6901337B613A68AB
:1013C0007B69134479680D22184617F0D1F903465A
:1013D000FB74FB7C002B13D17B690D337B613A6876
:1013E0007B69134400221A707B6901337B610D23F2
:1013F000BB743B680433BA7C1A7002E000BF00E0A3
:1014000000BF7B6918461837BD4680BD0004A400A4
:1014100080B586B000AFF860B9607A600123FB75D3
:101420000023BB75FB683B61BB68023B3A69134410
:101430001B78902B09D0BB68013B3A6913441B7899
:10144000002B02D00423FB752DE03B695B78BB7554
:10145000BB7D5B08DAB27B681A727B680433B97DA6
:101460003A695A2009F032F90346FB75FB7D002BDF
:1014700018D1BB7D02333A6913443B613B695B7809
:10148000BB75BB7D5B08DAB27B681A727B680C3374
:10149000B97D3A695C2009F019F90346FB75FB7DBB
:1014A000002B00E000BFFB7D18461837BD4680BD0D
:1014B00080B58AB000AF78603960012387F82330A7
:1014C00000237B8300233B830023FB8200233B61BB
:1014D000A04BFB60002387F8223000237B620023AF
:1014E000FB6147F650737B81FB681A0EFB681B0299
:1014F00003F47F031A43FB681B0A03F47F431A4378
:10150000FB681B061343FB603A68FB69134407F151
:101510000C010422184617F02BF9034687F82330F4
:1015200097F82330002B40F00081FB690433FB6106
:10153000FB690133FB617B68191D3A68FB69134441
:101540000A4602215B2008F0DFFF78627B6A002BED
:1015500003D1012387F82330F6E0FA697B6A13444C
:10156000FB617B681B7B5B00D9B27B6898683A683B
:10157000FB69134402465C2008F0C6FF78627B6A70
:10158000002B00F0D480FA697B6A1344FB617B89ED
:101590001B021AB27B891B0A9BB21BB213431BB2FC
:1015A0009BB27B813A68FB69134407F10A0102226E
:1015B000184617F0DDF8034687F8233097F82330F4
:1015C000002B40F0B680FB690233FB613A68FB698F
:1015D000134420221A70FB690133FB617B6819698F
:1015E0003A68FB6913440A461021C02008F08CFFBA
:1015F00078627B6A002B00F09E80FA697B6A134454
:10160000FB617B685B691A0E7B685B691B0203F4F4
:101610007F031A437B685B691B0A03F47F431A4309
:101620007B685B691B0613433B613A68FB691344A3
:1016300007F110020421C12008F066FF78627B6A7E
:10164000002B7AD0FA697B6A1344FB617B681B8BA1
:101650001B021AB27B681B8B1B0A9BB21BB2134383
:101660001BB29BB27B833A68FB69134407F11A02F1
:101670000221C22008F048FF78627B6A002B5ED00E
:10168000FA697B6A1344FB617B685B8B1B021AB2AD
:101690007B685B8B1B0A9BB21BB213431BB29BB2D2
:1016A0003B833A68FB69134407F118020221C32007
:1016B00008F02AFF78627B6A002B42D0FA697B6AC5
:1016C0001344FB617B689B8B1B021AB27B689B8B6C
:1016D0001B0A9BB21BB213431BB29BB2FB823A683C
:1016E000FB69134407F116020221D62008F00CFF13
:1016F00078627B6A002B26D0FA697B6A1344FB610F
:10170000FB69DBB2053B87F822303B68043397F86E
:1017100022201A703A68FB69134400221A70FB6990
:101720000133FB61FB697B620EE000BF0CE000BF90
:101730000AE000BF08E000BF06E000BF04E000BF11
:1017400002E000BF00E000BF7B6A18462837BD46B4
:1017500080BD00BF0000308080B586B000AFF8606B
:10176000B9607A600123FB7500233B6145233B612F
:10177000BA683B699A4202D00223FB7518E0BB6845
:10178000023BFA6813441B78902B09D0BB68013BDD
:10179000FA6813441B78002B02D00423FB7507E082
:1017A0007B68FA684121502008F090FF0346FB75E2
:1017B000FB7D18461837BD4680BDFFFF80B586B05B
:1017C00000AF786039600123FB74374BBB600023A6
:1017D000BB7400237B610023FB60BB681A0EBB68EF
:1017E0001B0203F47F031A43BB681B0A03F47F4305
:1017F0001A43BB681B061343BB603A68FB6813447B
:1018000007F108010422184616F0B2FF0346FB74E4
:10181000FB7C002B42D1FB680433FB60FB68013387
:10182000FB607B6819683A68FB6813440A464121EB
:10183000522008F069FE78617B69002B02D10123F8
:10184000FB742CE0FA687B691344FB607B68596881
:101850003A68FB6813440A461021572008F054FEEA
:1018600078617B69002B02D10123FB7417E0FA68D1
:101870007B691344FB60FB68DBB2053BBB743B68D0
:101880000433BA7C1A703A68FB68134400221A7059
:10189000FB680133FB60FB687B6100E000BF7B6994
:1018A00018461837BD4680BD0000328080B586B02E
:1018B00000AFF860B9607A600123FB7500233B61DB
:1018C000BB68023BFA6813441B78902B09D0BB68B5
:1018D000013BFA6813441B78002B02D00423FB75EC
:1018E00010E014233B61BA683B699A4202D002239C
:1018F000FB7507E07B68FA681021582008F0E6FEC7
:101900000346FB75FB7D18461837BD4680BD80B485
:1019100085B000AF786039600023FB733B68A0227C
:101920001A703B6800225A703B6800229A703B682C
:101930000822DA703B6809221A713B6843225A7107
:101940003B6843229A713B684322DA713B68442228
:101950001A723B684B225A723B6846229A723B6865
:101960007622DA723B6831221A73FB7B18461437F1
:10197000BD465DF8047B704780B584B000AF7860E9
:1019800039600123FB737B68BB603B685B681A8826
:10199000BB685A803B68DB681A88BB689A80BB6862
:1019A00003F11A003B68D9683B681B7A5B001A4652
:1019B00016F0DEFE0346FB733B681A7ABB6883F8B9
:1019C0002E200023FB73FB7B18461037BD4680BDDD
:1019D00080B487B000AF786039607B687B61012399
:1019E000FB740023FB607B6903F12F023B681A61E3
:1019F0003B684FF400425A613B6808221A833B68F7
:101A000001225A837B695A883B689A807B6903F17B
:101A10001A023B689A607B6993F82E203B681A7320
:101A20003B6800229A830023FB74FB7C18461C371A
:101A3000BD465DF8047B704780B584B000AF786028
:101A400039607B68BB600123FB733B681B681846E9
:101A500005F09AFD0346FB73FB7B002B0DD1BB68A1
:101A600003F24D103B681B684122194616F080FEB8
:101A70000346FB73FB7B002B00E000BFFB7B18469B
:101A80001037BD4680BDFFFFF0B5ADF5217D04AF39
:101A900007F51C73A3F51B73186007F51C73A3F5FA
:101AA0001C73196007F51C73A3F51B731B68C7F83B
:101AB0006832012387F86F3207F51C73A3F58C7326
:101AC00018464FF482731A46002132F00DFD07F5D7
:101AD0001C73A3F5077318464FF482731A4600214E
:101AE00032F002FD0023A7F866320023C7F8603207
:101AF000D7F868321B78072B00F23381D7F86832A9
:101B00001B780133DAB2D7F868321A70D7F8683226
:101B100003F16A00D7F8683203F1CB01D7F86832D5
:101B200003F14A02D7F8683203F5C77305F09EFD4A
:101B3000034687F86F3297F86F32002B40F013811D
:101B4000D7F8683203F24D14D7F8683203F5C77539
:101B5000D7F8683203F16A06D7F8683203F18A0CC5
:101B6000D7F8683203F58673D7F868224A32D7F877
:101B7000681201F2CF11D7F8680200F2DF1003906B
:101B8000029101920093634632462946204605F0B1
:101B9000A1FE034687F86F3297F86F32002B40F0B2
:101BA000E4800023C7F85C3203F056FFC7F85C02FC
:101BB000D7F8683203F2CF1107F10C031022184650
:101BC00016F0D6FD034687F86F3207F51C73A3F5B0
:101BD000197310225A6407F5AC7310226B4918462A
:101BE00016F0C6FD034687F86F3207F51C73A3F5A0
:101BF0008C731022C3F80021D7F86832991C07F5BE
:101C00001C73A3F58C73D3F8003107F5AC72134441
:101C10000A4602215B2008F077FCC7F8600207F54E
:101C20001C73A3F58C73D3F80021D7F860321A44E3
:101C300007F51C73A3F58C73C3F80021D7F868323D
:101C400093F82E305B00D9B2D7F8683203F11A004E
:101C500007F51C73A3F58C73D3F8003107F5AC724C
:101C6000134402465C2008F04FFCC7F8600207F5F9
:101C70001C73A3F58C73D3F80021D7F860321A4493
:101C800007F51C73A3F58C73C3F8002107F5AC723C
:101C900007F10C0107F1540300932023D7F85C02ED
:101CA00004F0A4FC034687F86F3297F86F32002BDC
:101CB0005DD1D7F8683203F2EF10B7F8663207F15A
:101CC000540213441022194616F052FD034687F8B9
:101CD0006F3297F86F32002B4BD1B7F86632103362
:101CE000A7F86632D7F8683203F2FF10B7F8663209
:101CF00007F1540213441022194616F039FD034629
:101D000087F86F3297F86F32002B34D1D7F86832EA
:101D100003F2EF10D7F8683203F24D11D7F86832AA
:101D200003F20F231A4605F0FDFF034687F86F32D2
:101D300097F86F32002B20D1D7F8683203F5C772BD
:101D400007F51C73A3F51C731B681A60D7F868327B
:101D500003F20F2207F51C73A3F51C731B685A606E
:101D60000CE000BF0AE000BF08E000BF06E000BFD3
:101D700004E000BF02E000BF00E000BF97F86F3250
:101D8000184607F51D77BD46F0BD00BFD0580300CB
:101D900080B5ADF5247D02AF07F52273A3F51F735F
:101DA000186007F52273A3F52073196007F52273F5
:101DB000A3F281231A7007F52273A3F51F731B6822
:101DC000C7F87C32012387F88732002387F87B32FB
:101DD00007F52273A3F58C7318464FF482731A46E5
:101DE000002132F081FB07F52273A3F50773184633
:101DF0004FF482731A46002132F076FB0023A7F8D5
:101E0000783207F52273A3F50B7300221A600433AE
:101E100000221A605A609A60D7F87C3203F2FF10F1
:101E2000D7F87C3203F5C77307F15C02194605F059
:101E300079FF034687F8873297F88732002B40F006
:101E4000C18007F52273A3F520731B68196807F199
:101E50005C031022184616F0B0FC034687F87B326C
:101E600097F87B32012B3ED1002387F8873200237D
:101E7000C7F8743203F0F0FDC7F874020023C7F806
:101E80008032D7F87C3203F2DF1107F114031022FD
:101E9000184616F06DFC034687F8873207F5227363
:101EA000A3F51D7310225A6407F5B8730A224A4934
:101EB000184616F05DFC034687F8873207F5227353
:101EC000A3F58C730A22C3F8002107F52273A3F24D
:101ED000812300221A7007F52273A3F281231B7855
:101EE000002B08D003E0012387F887326DE06023E0
:101EF000C7F8803202E04023C7F8803207F5B87295
:101F000007F1140107F16C030093D7F88032D7F87A
:101F1000740204F06BFB034687F8873297F8873228
:101F2000002B51D1D7F87C3203F22F20B7F878324A
:101F300007F16C0213441022194616F019FC0346EF
:101F400087F88732B7F878321033A7F87832D7F8A5
:101F50007C3203F23F20B7F8783207F16C02134469
:101F60001022194616F004FC034687F88732B7F8AA
:101F700078321033A7F87832D7F87C3203F24F204A
:101F8000B7F8783207F16C0213441022194616F0A4
:101F9000EFFB034687F88732B7F878321033A7F89B
:101FA0007832D7F87C3203F25F20B7F8783207F145
:101FB0006C0213441022194616F0DAFB034687F828
:101FC000873202E000BF00E000BF97F88732184672
:101FD00007F52277BD4680BDE4580300B0B5ADF5E6
:101FE000806D06AF07F57A74A4F57774206007F565
:101FF0007A70A0F57870016007F57A71A1F57971B2
:102000000A6007F57A72A2F57A721360012387F8E5
:10201000E73307F57A73A3F577731B68C7F8E033E6
:1020200007F5637348220021184632F05DFA07F580
:10203000517348220021184632F056FA07F57A7398
:10204000A3F5D47318464FF482731A46002132F078
:102050004BFA07F57A73A3F52B7318464FF4827386
:102060001A46002132F040FA07F57A73A3F52F7370
:1020700000221A60043300221A605A609A6000231A
:10208000C7F8DC3307F57A73A3F531731A460023DA
:102090001360536007F57A73A3F5717300221A6019
:1020A0000433FC220021184632F01EFA0023C7F840
:1020B000D83307F57A73A3F57A731B68002B00F009
:1020C0001F81D7F8E033002B00F01A81D7F8E033F6
:1020D00003F22F2107F563731022184616F048FB10
:1020E000034687F8E7331023C7F8D033D7F8E03337
:1020F00003F23F2107F551731022184616F038FB02
:10210000034687F8E7331023C7F88833D7F8E0335E
:102110005B780133DAB2D7F8E0335A7007F57A7397
:10212000A3F579731B68002B59D007F57A73A3F5D3
:10213000797207F57A73A3F5787307F51070126852
:10214000196816F015FB034687F8E73307F57A732D
:10215000A3F5D47307F57A72A2F579721268C3F801
:10216000002107F57A73A3F579731B6803F00F0359
:10217000C3F11003C7F8D43307F57A73A3F5757369
:1021800000221A60043300221A605A609A6007F530
:102190007A73A3F5757380221A7007F57A73A3F525
:1021A000D473D3F8003107F51072134407F114010A
:1021B000D7F8D423184616F0DBFA034687F8E7333E
:1021C00007F57A73A3F5D473D3F80021D7F8D43385
:1021D0001A4407F57A73A3F5D473C3F8002107F501
:1021E0007A73A3F5317307F124021A60D7F8D83354
:1021F000DAB207F57A73A3F531731A71D7F8FC03D5
:1022000007F57A73A3F5D473D3F8001197F8002477
:10221000D7F80434FFF734F803461A46D7F8FC33EE
:10222000C3F80021D7F8E0335B78D7F8E02302F257
:102230006F2207F5107507F5517407F56370D7F82D
:10224000FC13049107F59E71039107F596710291B5
:10225000019200932B4622460146D7F8DC0304F096
:10226000BFFD034687F8E73307F57A73A3F52B73B1
:10227000D3F8002107F59E7107F57A73A3F57A73F9
:10228000186816F075FA034687F8E733D7F8E03395
:1022900003F27F2307F596711022184616F068FAAC
:1022A000034687F8E73307F57A73A3F52B73D3F862
:1022B000003107F57A72A2F57A721268134407F5B5
:1022C00096710822184616F053FA034687F8E7334A
:1022D00007F57A73A3F52B73D3F8003103F10802E5
:1022E000D7F8F8331A60D7F8E03303F26F2307F515
:1022F00096711022184616F03BFA034687F8E7332A
:1023000097F8E733184607F57A77BD46B0BDFFFF6B
:10231000B0B5ADF5387D06AF07F53274A4F52F746E
:10232000206007F53270A0F53070016007F532715A
:10233000A1F531710A6007F53272A2F532721360AD
:10234000012387F8C73207F53273A3F52F731B6893
:10235000C7F8C03207F53273A3F5887318464FF4F7
:1023600082731A46002132F0BFF807F53273A3F5E5
:10237000057318464FF482731A46002132F0B4F800
:1023800007F53273A3F51773184648231A46002140
:1023900032F0AAF807F53273A3F5297318464823DB
:1023A0001A46002132F0A0F80023C7F8BC3207F526
:1023B0003273A3F52D7300221A60043300221A60D1
:1023C0005A609A6007F53273A3F5317207F53273DC
:1023D000A3F5307307F5DC701268196816F0C8F9B8
:1023E000034687F8C73207F53273A3F5887307F5FC
:1023F0003272A2F531721268C3F80021D7F8C032E8
:1024000003F22F2107F16C031022184616F0B0F9E1
:10241000034687F8C73207F53273A3F51773102206
:102420005A64D7F8C03203F24F2107F12403102277
:10243000184616F09DF9034687F8C73207F5327340
:10244000A3F5297310225A64D7F8C0325B78D7F805
:10245000C02202F27F2207F5DC7507F1240407F1A0
:102460006C00B7F8DC12049107F1B401039107F195
:1024700014010291019200932B4622460146D7F89F
:10248000BC0204F029FA034687F8C73297F8C7322E
:10249000002B06D0194831F075FE194831F0E2FEE4
:1024A00024E007F53273A3F50573D3F80021D7F8BC
:1024B000D8321A60D7F8D8321A6807F1B40107F594
:1024C0003273A3F53273186816F052F9034687F891
:1024D000C732D7F8C03203F27F2307F1140110226C
:1024E000184616F045F9034687F8C73297F8C73201
:1024F000184607F53277BD46B0BD00BFF05803005F
:102500000459030080B582B000AF78607B68572221
:102510001A707B6883225A707B680B4A5A607B680A
:1025200008330F220949184616F022F97B68173341
:102530000F220749184616F01BF97B680022DA843F
:1025400000BF0837BD4680BD38060020085903008B
:102550001859030080B584B000AF78600023FB8178
:1025600041F2280200212E4831F0BEFF2C4A7B6840
:10257000136047F62073FB81FB891B021AB2FB89AB
:102580001B0A9BB21BB213431BB29AB2244B9A8014
:1025900047F62273FB81FB891B021AB2FB891B0AD7
:1025A0009BB21BB213431BB29AB21D4BDA8047F6A3
:1025B0002473FB81FB891B021AB2FB891B0A9BB2A5
:1025C0001BB213431BB29AB2154B1A810023FB8135
:1025D000D323FB81124AFB895381114B0022C3F89C
:1025E0001C280F4B00221A730D4B0E4AC3F81028FB
:1025F0000B4B40F2D712C3F81428094B0A4A9A63CE
:10260000074B4FF4E872DA63054B0022C3F8202829
:102610000648FFF777FF024B18461037BD4680BDCE
:102620007C06002090020020680400208C06002018
:1026300090B5ADF5597D04AF07F55473A3F5537309
:10264000186007F55473A3F554731960012387F8D4
:102650004F3307F5457328220021184631F044FF17
:1026600007F5437300221A605A600023C7F8483305
:102670000023C7F8083307F55473A3F553731B6899
:10268000C7F8443307F55473A3F5A47300221A6006
:102690000433FC220021184631F026FF07F554735D
:1026A000A3F554731B68C7F84033D7F84433D3F805
:1026B0001C38C7F83C33D7F84433D3F82038002B04
:1026C00038D107F55473A3F5527300221A6004330E
:1026D0004FF4FE720021184631F006FF07F108039F
:1026E000C7F8143307F5457207F55473A3F5537310
:1026F0001146186800F066FD034687F84F3397F8D7
:102700004F33002B40F0C380D7F8443303F6260242
:1027100007F545731146184600F022FE0246D7F829
:102720004433C3F82028D7F84433D3F82038002B9B
:1027300000F0AF80D7F8443393F82538012B2DD122
:102740004123C7F84833D7F8443303F62603412220
:102750005549184616F00CF8034687F84F33D7F85A
:1027600044331868D7F8443303F62601D7F84433C6
:1027700093F8243807F50272002403940293D7F8E3
:102780004033019307F5427300931346D7F848236B
:10279000FFF724FC034687F84F3341E0D7F8443372
:1027A000D3F82028D7F83C33EF339A4208D9EF23E7
:1027B000C7F84833D7F84433012283F824280DE0C2
:1027C000D7F84433D3F82028D7F83C33D31AC7F8C6
:1027D0004833D7F84433002283F82428D7F8443309
:1027E0001868D7F83C3303F50263D7F84423134441
:1027F000991DD7F8443393F8243807F50272002462
:1028000003940293D7F84033019307F54273009382
:102810001346D7F84823FFF7E1FB034687F84F3309
:1028200097F84F33002B36D1D7F84433D3F81C2810
:10283000D7F848331A44D7F84433C3F81C2807F5AF
:102840000273C7F80C33D7F80833DBB287F81033BC
:1028500007F55473A3F554731968D7F8443393F804
:10286000242807F54373184600F008FE024607F5D2
:102870005473A3F554731B68C3F8002107F5547310
:10288000A3F554731B68D3F80031002B04E000BF9C
:1028900002E000BF00E000BF97F84F33184607F58D
:1028A0005577BD4690BD00BF3806002080B58CB07E
:1028B00004AF786039600123FB770123BB7707F110
:1028C0000C0300221A605A600023BB610023BB6026
:1028D0007B687B613B6858683B681B7A194607F147
:1028E0000C031A4600F041FF0346BB77BB7F002B69
:1028F00015D17B691868F9683B699BB27A6992F8CF
:1029000024280292019307F108030093BB6908226F
:10291000FFF7FEFC0346FB77FB7F002B00E000BFC8
:10292000FB7F18462037BD4680BDFFFF90B597B0AE
:1029300004AF78603960012387F8433007F1300332
:1029400000221A605A607B68FB6300233B6107F139
:10295000140300221A605A609A60DA601A615A61A0
:102960009A6100237B643B68BB630023FB60FB6BC5
:102970001B7B032B02D101237B6401E002237B64D8
:10298000FB6B1B7BFA6B5B0013449B881946274843
:1029900031F0F8FB264831F065FCFB6B012283F82F
:1029A0002428FB6B1868FB6B1B7B5B00FA6B1344E2
:1029B000191DFB6B93F8243807F1100201240394CE
:1029C0000293BB6B019307F10C03009313467A6CDF
:1029D000FFF704FB034687F8433097F84330002B9A
:1029E0001BD107F110033B63FB68DBB287F834307F
:1029F0003A6807F130031146184600F0ADFD024673
:102A00003B68C3F800213B68D3F80031002B06D0A7
:102A1000FB6B0022C3F8182802E000BF00E000BFF3
:102A200097F8433018464C37BD4690BD28590300EF
:102A300040590300B0B5D0B004AF07F59873A3F5C3
:102A40009273186007F59873A3F59473196007F5EE
:102A50009873A3F596731A6007F58C7300221A60B9
:102A60005A609A60012387F82F31012387F82E31AD
:102A700007F59873A3F58C7300221A600433FC22C7
:102A80000021184631F030FD07F59873A3F58E73D9
:102A900000221A6007F59873A3F592731B68C7F8B4
:102AA0002831D7F82831D3F81838C7F8243107F57A
:102AB0009873A3F594731B68586807F59873A3F58A
:102AC00094731B681B7A194607F59873A3F59673E0
:102AD00007F58C721B6800F07EFE034687F82E31E6
:102AE00097F82E31002B40F0DD80D7F82831186898
:102AF000D7F8181197F81C311D46D7F820319BB232
:102B0000D7F8282192F8242807F11804029201939B
:102B100007F11403009323462A46FFF7F9FB034607
:102B200087F82F3197F82F31002B40F0BD80D7F870
:102B300028311B7B002B26D1D7F824314033D7F81E
:102B40002821D01807F59873A3F58E731A6807F13A
:102B50001803194615F00CFE034687F82F3197F835
:102B60002F31002B40F0A280D7F82831D3F8CC22A7
:102B700007F59873A3F58E731B681A44D7F82831AC
:102B8000C3F8CC226FE0D7F828311B7B012B26D16C
:102B9000D7F8243103F53473D7F82821D01807F576
:102BA0009873A3F58E731A6807F11803194615F088
:102BB000DFFD034687F82F3197F82F31002B77D1AF
:102BC000D7F82831D3F85C2507F59873A3F58E73F1
:102BD0001B681A44D7F82831C3F85C2543E0D7F8BE
:102BE00028311B7B022B26D1D7F8243103F5AC63A7
:102BF000D7F82821D01807F59873A3F58E731A68B3
:102C000007F11803194615F0B3FD034687F82F3175
:102C100097F82F31002B4DD1D7F82831D3F8EC2776
:102C200007F59873A3F58E731B681A44D7F82831FB
:102C3000C3F8EC2717E0D7F8243103F5FE63D7F883
:102C40002821D01807F59873A3F58E731A6807F139
:102C50001803194615F08CFD034687F82F3197F8B5
:102C60002F31002B28D1D7F82831D3F8182807F5B1
:102C70009873A3F58E731B681A44D7F82831C3F8EC
:102C8000182807F59873A3F596731B681B78002B1B
:102C900013D1D7F828311B7B0133DAB2D7F82831AA
:102CA0001A730AE000BF08E000BF06E000BF04E0BE
:102CB00000BF02E000BF00E000BF97F82F311846C8
:102CC00007F59877BD46B0BD80B596B004AF786083
:102CD0003960012387F8473000233B637B683B64FE
:102CE00000233B6107F1140300221A605A609A60C6
:102CF000DA601A615A619A610023FB630023FB606A
:102D00003B68BB6300237B633B6C012283F8242870
:102D10003B6C18683B6C93F8243807F110020221D1
:102D200003910293BB6B019307F10C0300931346CD
:102D3000FA6B796BFFF752F9034687F8473097F83B
:102D40004730002B16D107F110033B633A6807F1B7
:102D500030031146184600F063FC02463B68C3F896
:102D600000213B68D3F80031002B04D1012387F800
:102D7000473000E000BF97F8473018464837BD4657
:102D800080BDFFFFB0B5D0B004AF07F59873A3F5D1
:102D90009273186007F59873A3F59473196007F59B
:102DA0009873A3F596731A6007F58C7300221A6066
:102DB0005A609A60012387F82F31012387F82E315A
:102DC00007F59873A3F58C7300221A600433FC2274
:102DD0000021184631F088FB07F59873A3F58E7330
:102DE00000221A6007F59873A3F592731B68C7F861
:102DF0002831D7F82831D3F81838C7F8243107F527
:102E00009873A3F594731B68586807F59873A3F536
:102E100094731B681B7A194607F59873A3F596738C
:102E200007F58C721B6800F045FD034687F82E31CC
:102E300097F82E31002B40F0CB80D7F82831186856
:102E4000D7F8181197F81C311D46D7F820319BB2DE
:102E5000D7F8282192F8242807F118040292019348
:102E600007F11403009323462A46FFF751FA03465D
:102E700087F82F3197F82F31002B40F0AB80D7F82F
:102E800028311B7B002B26D1D7F824314033D7F8CB
:102E90002821D01807F59873A3F58E731A6807F1E7
:102EA0001803194615F064FC034687F82F3197F88C
:102EB0002F31002B40F09080D7F82831D3F8CC2266
:102EC00007F59873A3F58E731B681A44D7F8283159
:102ED000C3F8CC225DE0D7F828311B7B012B26D12B
:102EE000D7F8243103F53473D7F82821D01807F523
:102EF0009873A3F58E731A6807F11803194615F035
:102F000037FC034687F82F3197F82F31002B65D116
:102F1000D7F82831D3F85C2507F59873A3F58E739D
:102F20001B681A44D7F82831C3F85C2531E0D7F87C
:102F300028311B7B022B26D1D7F8243103F5AC6353
:102F4000D7F82821D01807F59873A3F58E731A685F
:102F500007F11803194615F00BFC034687F82F31CB
:102F600097F82F31002B3BD1D7F82831D3F8EC2735
:102F700007F59873A3F58E731B681A44D7F82831A8
:102F8000C3F8EC2705E01A4831F0FCF8194831F095
:102F900069F9D7F82831D3F8182807F59873A3F5FD
:102FA0008E731B681A44D7F82831C3F8182807F520
:102FB0009873A3F596731B681B78002B11D1D7F873
:102FC00028311B7B0133DAB2D7F828311A7308E0B5
:102FD00000BF06E000BF04E000BF02E000BF00E069
:102FE00000BF97F82F31184607F59877BD46B0BD5A
:102FF000445903004059030080B586B000AFF86023
:10300000B96011461A460B46FB711346BB7101238A
:10301000FB750023BB82FB793B75BB797B75BA6876
:1030200007F114031146184600F05AFB0246BB682C
:10303000C3F80021BB68D3F80031002B02D0002375
:10304000FB7500E000BFFB7D18461837BD4680BD0C
:1030500080B584B000AF786039600123FB73012331
:10306000BB733B685A683B681B7A1946104600F0F0
:103070008FFC0346BB73BB7B002B02D10023FB7389
:1030800000E000BFFB7B18461037BD4680BDFFFF48
:10309000B0B598B002AF7860012387F857307B68ED
:1030A0003B650023FB6007F110033D220021184619
:1030B00031F01AFA3B6D03F140003B6DD3F8CC12AE
:1030C0003B6D03F534743B6DD3F85C553B6D03F5F4
:1030D000AC633A6DD2F8EC27019200932B4622465E
:1030E00004F086FF034687F8573097F85730002BD7
:1030F00006D0174831F046F8164831F0B3F821E011
:103100003B6D03F5AC603B6DD3F8EC3707F10C0277
:10311000194605F089F8034687F8573097F8573075
:10312000002B06D00C4831F02DF80A4831F09AF8FF
:1031300008E007F10C030021184602F0B7F8034637
:1031400087F8573097F8573018465837BD46B0BD06
:1031500068590300405903008C59030080B485B0BE
:1031600000AF78607B68FB60FB6893F824381846F2
:103170001437BD465DF8047B704780B485B000AF5E
:1031800078600B46FB707B68FB60FB78012B08D1F5
:10319000FB68012283F82528FB68002283F8242895
:1031A00003E0FB68002283F82528FB68002283F8EF
:1031B0002428FB6893F8253818461437BD465DF877
:1031C000047B704780B584B000AF7860396001231C
:1031D000FB737B68BB603B6819683B6804331A4625
:1031E000786800F012F80346FB73BB68D3F8102828
:1031F0003B689A60BB68D3F814389AB23B689A81EE
:10320000FB7B18461037BD4680BD80B588B000AF47
:10321000F860B9607A600123FB77FB68BB6100232B
:103220007B6100233B61BB6903F11001BA683B6914
:1032300013440A460121462007F066F978617B694C
:10324000002B7BD03A697B6913443B61BB6903F176
:103250001101BA683B6913440A460121472007F06F
:1032600053F978617B69002B6AD03A697B69134412
:103270003B61BB6903F11201BA683B6913440A461A
:1032800002215C2007F040F978617B69002B59D05E
:103290003A697B6913443B61BB695969BA683B6908
:1032A00013440A4641215B2007F02EF978617B69BF
:1032B000002B49D03A697B6913443B61BB6903F138
:1032C0001801BA683B6913440A460F21512007F0E0
:1032D0001BF978617B69002B38D03A697B6913440C
:1032E0003B61BB6903F12701BA683B6913440A4695
:1032F0000F21522007F008F978617B69002B27D055
:103300003A697B6913443B61BB69DB8E1946BA6835
:103310003B6913440A4602214E2007F0F5F8786114
:103320007B69002B16D03A697B6913443B613B698A
:103330009AB27B681A800023FB770CE000BF0AE09A
:1033400000BF08E000BF06E000BF04E000BF02E0ED
:1033500000BF00E000BFFB7F18462037BD4680BDA0
:1033600080B584B000AF786039600023FB60002333
:10337000BB607B68002B7CD03B68002B79D07B68DE
:1033800099887B6818683A68FB681344024647F6D8
:103390004A7007F0F5F8B860BB68002B60D0BB68D6
:1033A000FB607B6899897B6898683A68FB6813447E
:1033B000024647F64B7007F0E3F8B860BB68002B95
:1033C00050D0FA68BB681344FB607B689B8A002B73
:1033D00013D07B68998A7B6818693A68FB68134444
:1033E000024647F64C7007F0CBF8B860BB68002B7C
:1033F0003AD0FA68BB681344FB607B689B8B002B58
:1034000013D07B68998B7B6898693A68FB68134492
:10341000024647F64D7007F0B3F8B860BB68002B62
:1034200024D0FA68BB681344FB607B689B8C002B3C
:1034300013D07B68998C7B68186A3A68FB681344E0
:10344000024647F64E7007F09BF8B860BB68002B49
:103450000ED0FA68BB681344FB60FB68BB6008E0F1
:1034600000BF06E000BF04E000BF02E000BF00E0D4
:1034700000BFBB6818461037BD4680BD80B588B018
:1034800000AFF860B9601346FB710123FB76314B46
:103490003B610023BB760023FB6100237B61FB794A
:1034A000002B03D13B6943F400433B613B691A0E97
:1034B0003B691B0203F47F031A433B691B0A03F4B5
:1034C0007F431A433B691B0613433B61BA687B6920
:1034D000134407F110010422184615F049F9034678
:1034E000FB76FB7E002B2CD17B6904337B617B69EF
:1034F00001337B61BA687B69D018FB681968FB6887
:103500001B791A4615F034F90346FB76FB7E002B37
:1035100019D1FB681B791A467B6913447B61FB68F0
:103520001B79BB76BB680433BA7E1A70BA687B69B4
:10353000134400221A707B6901337B617B69FB6154
:1035400002E000BF00E000BFFB6918462037BD461F
:1035500080BD00BF0000D48480B586B000AF786025
:1035600039600123FB742D4BBB600023BB74002327
:103570007B610023FB60BB681A0EBB681B0203F46F
:103580007F031A43BB681B0A03F47F431A43BB68DB
:103590001B061343BB603A68FB68134407F108013C
:1035A0000422184615F0E4F80346FB74FB7C002B5C
:1035B0002CD1FB680433FB60FB680133FB603A6885
:1035C000FB68D0187B6819687B681B791A4615F070
:1035D000CFF80346FB74FB7C002B19D17B681B7969
:1035E0001A46FB681344FB607B681B79BB743B681D
:1035F0000433BA7C1A703A68FB68134400221A70CC
:10360000FB680133FB60FB687B6102E000BF00E008
:1036100000BF7B6918461837BD4680BD0000CA84CC
:1036200080B586B000AF786039600123FB742B4B06
:10363000BB600023BB7400237B610023FB60BB687D
:103640001A0EBB681B0203F47F031A43BB681B0AF4
:1036500003F47F431A43BB681B061343BB603A68FD
:10366000FB68134407F108010422184615F080F89E
:103670000346FB74FB7C002B27D1FB680433FB6003
:10368000FB680133FB603A68FB68D0187B681B68F5
:103690000822194615F06CF80346FB74FB7C002BDE
:1036A00015D1FB680833FB600823BB743B68043307
:1036B000BA7C1A703A68FB68134400221A70FB68DF
:1036C0000133FB60FB687B6102E000BF00E000BFEC
:1036D0007B6918461837BD4680BD00BF0000C08416
:1036E00080B586B000AF786039600123FB7448F282
:1036F0003C037B8100237B610023FB607B891B02F1
:103700001AB27B891B0A9BB21BB213431BB29BB23A
:103710007B813A68FB68134407F10A0102221846CC
:1037200015F026F80346FB74FB7C002B17D1FB68D1
:103730000233FB603A68FB6813447A6812781A70A7
:10374000FB680133FB603A68FB6813447A6852787F
:103750001A70FB680133FB60FB687B6100E000BF0F
:103760007B6918461837BD4680BD80B487B000AF6E
:10377000F860B9607A600123FB75FB683B61BB6848
:10378000023B3A6913441B78902B09D0BB68013B7C
:103790003A6913441B78002B02D00423FB7513E015
:1037A000BB68013B3A6913441B781B02BA68023AB2
:1037B00039690A44127813431A467B685A607B6859
:1037C000FA681A600023FB75FB7D18461C37BD465E
:1037D0005DF8047B704780B487B000AFF860B960D3
:1037E0007A603B600123FB75FB683B61BB68023B71
:1037F0003A6913441B78902B08D1BB68013B3A69A6
:1038000013441B78002B01D10023FB75BB68023BDE
:103810003A6913441B78902B2AD0BB68023B3A6963
:1038200013441B78612B0ED1BB68013B3A691344EA
:103830001B78002B07D0BB68013B3A6913441A7808
:103840003B681A7014E0BB68023B3A6913441B786A
:10385000612B0AD1BB68013B3A6913441B78002BEA
:1038600003D13B68FF221A7002E00423FB751AE0C3
:10387000BB68013B3A6913441B781B02BA68023AE1
:1038800039690A44127813431A467B689A60BB6808
:10389000023BBB607B68FA681A60BB68DAB27B687F
:1038A0001A710023FB75FB7D18461C37BD465DF879
:1038B000047B704780B487B000AFF860B9607A606D
:1038C0003B600123FB75FB683B61BB68023B3A69C7
:1038D00013441B78902B08D1BB68013B3A69134411
:1038E0001B78002B01D10023FB75BB68023B3A69B2
:1038F00013441B78902B2AD0BB68023B3A691344CF
:103900001B78612B0ED1BB68013B3A6913441B78CD
:10391000002B07D0BB68013B3A6913441A783B6817
:103920001A7014E0BB68023B3A6913441B78612BA0
:103930000AD1BB68013B3A6913441B78002B03D1C1
:103940003B68FF221A7002E00423FB7519E0BB6894
:10395000013B3A6913441B781B02BA68023A396981
:103960000A44127813431A467B689A607B68FA68A7
:103970001A60BB68DBB2023BDAB27B681A710023C3
:10398000FB75FB7D18461C37BD465DF8047B704710
:1039900080B485B000AF786039600123FB733B6869
:1039A000023B7A6813441B78902B09D03B68013B9B
:1039B0007A6813441B78002B02D00423FB7301E0C8
:1039C0000023FB73FB7B18461437BD465DF8047B70
:1039D0007047FFFF80B5A2B000AFF860B9607A60B1
:1039E000FB70012387F883300023C7F8843007F188
:1039F00010031A46B968F86800F02EF8034687F8F5
:103A0000833097F88330002B06D0104830F0BAFB93
:103A10000F4830F027FC13E007F1100100230022CB
:103A2000786806F03DFAC7F88400D7F88430002B98
:103A300006D1084830F0A6FB054830F013FC00BF63
:103A4000D7F8843018468837BD4680BDA859030092
:103A5000C4590300C859030080B5BEB000AFF86078
:103A6000B9607A60002387F8F7300023C7F8F03098
:103A7000B968F86801F074FCC7F8EC00D7F8EC30CE
:103A8000002B00F0BB80D7F8EC309A887B68DA8096
:103A900007F114031946D7F8EC0002F05BF803466F
:103AA00087F8F73097F8F730002B06D0564830F0FB
:103AB00069FB564830F0D6FBA0E0D7F8EC30042282
:103AC00083F8F920D7F8EC30FA33BA6D07F1140116
:103AD000184614F04DFE034687F8F73097F8F73094
:103AE000002B06D04A4830F04DFB484830F0BAFB76
:103AF00084E0D7F8EC3003F58D70D7F8A02007F1FB
:103B000014034833194614F033FE034687F8F730A0
:103B100097F8F730002B06D03D4830F033FB3B4898
:103B200030F0A0FB6AE0D7F8EC3003F17000D7F872
:103B3000E82007F114039033194614F019FE0346E8
:103B400087F8F73097F8F730002B06D0304830F080
:103B500019FB2E4830F086FB50E0D7F8E820D7F864
:103B6000EC30C3F8B4207B6803F10800D7F8EC30E0
:103B7000F9334122194614F0FBFD034687F8F7306C
:103B800097F8F730002B06D0214830F0FBFA1F4899
:103B900030F068FB32E0D7F8EC3018331A461021C9
:103BA000D7F8F00001F066FF034687F8F7307B682E
:103BB00003F14900D7F8EC3018331022194614F0FD
:103BC000D7FD034687F8F73097F8F730002B06D07B
:103BD000104830F0D7FA0D4830F044FB0EE0796819
:103BE0004FF031324FF03133C1E91823D7F8EC10E0
:103BF0004FF031324FF03133C1E9042397F8F730F9
:103C00001846F837BD4680BDE4590300C459030087
:103C1000005A0300105A030090B5ADF5297D02AF9C
:103C200007F52674A4F52374206007F52670A0F527
:103C300024700160114607F52672A2F52672136002
:103C400007F52673A3F291230A461A70002387F81A
:103C5000973207F51E7300221A605A609A60DA6084
:103C600007F52673A3F50E7318464FF482731A46B0
:103C7000002130F039FC0023C7F8903207F5267395
:103C8000A3F52073184648231A46002130F02CFC77
:103C9000002387F88F3207F52673A3F5247207F502
:103CA0002673A3F523731168186801F059FBC7F850
:103CB0008802D7F88832002B00F0B981D7F8883213
:103CC00003F27B1007F52673A3F526731B684122C8
:103CD000194614F04DFD034687F8973297F897324E
:103CE000002B06D0D54830F04DFAD54830F0BAFA5E
:103CF0009DE107F52673A3F291231B78012B40F079
:103D00009681D7F8883203F1FA0107F5B2732022C1
:103D1000184614F02DFD034687F8973297F897322E
:103D2000002B06D0C54830F02DFAC54830F09AFA7D
:103D30007DE107F52673A3F59A732022C3F80021CD
:103D400007F52673A3F59A73D3F8003107F5B2721D
:103D5000D018D7F8883203F5BE732022194614F024
:103D600007FD034687F8973297F89732002B06D065
:103D7000B24830F007FAB24830F074FA57E107F56C
:103D80002673A3F59A73D3F8003103F1200207F5E7
:103D90002673A3F59A73C3F8002107F52673A3F5DC
:103DA0009A73D3F8003107F5B272D018D7F8883279
:103DB00018331022194614F0DBFC034687F89732BB
:103DC00097F89732002B06D09C4830F0DBF99C48DE
:103DD00030F048FA2BE107F52673A3F59A73D3F870
:103DE000003103F1100207F52673A3F59A73C3F8A7
:103DF000002107F52673A3F59A73D3F8003107F570
:103E00002672A2F59A725E21D15407F52673A3F5A6
:103E10009A73D3F800315A1C07F52673A3F59A73E9
:103E2000C3F8002107F52673A3F59A73D3F8003180
:103E300007F52672A2F59A720121D15407F526736F
:103E4000A3F59A73D3F800315A1C07F52673A3F52E
:103E50009A73C3F8002107F52673A3F59A73D3F874
:103E60000031D7F88822517807F52672A2F59A72A8
:103E7000D15407F52673A3F59A73D3F800315A1C71
:103E800007F52673A3F59A73C3F8002107F5267387
:103E9000A3F59A73D3F8003107F5B27213440C22DC
:103EA0006849184614F064FC034687F8973297F87F
:103EB0009732002B06D0614830F064F9604830F04A
:103EC000D1F9B4E007F52673A3F59A73D3F800315E
:103ED00003F10C0207F52673A3F59A73C3F80021CA
:103EE000D7F888329B881946574830F04BF9544828
:103EF00030F0B8F9D7F888329B881B021AB2D7F88D
:103F000088329B881B0A9BB21BB213431BB29AB226
:103F100007F52673A3F282231A8007F52673A3F50B
:103F20009A73D3F8003107F5B272134407F1160201
:103F300002215C2006F0E8FAC7F89002D7F8903228
:103F4000002B03D1012387F8973270E007F5267321
:103F5000A3F59A73D3F80021D7F890321A4407F5E5
:103F60002673A3F59A73C3F80021D7F8883203F5B6
:103F7000497107F5B27207F1600300934023D7F847
:103F8000880202F033FB07F1600107F118031022E9
:103F9000184614F0EDFB07F52673A3F520731022E5
:103FA0005A64D7F8883203F23B13C7F87C32D7F84B
:103FB0008832B933C7F87832D7F888321833C7F85F
:103FC0008032D7F888321033C7F8843207F51A7276
:103FD00007F51E7107F11803184602F095FB03461A
:103FE00087F8973297F89732002B06D0174830F0B1
:103FF000C9F8134830F036F919E007F52673A3F530
:1040000026731B68413307F51A711022184614F005
:10401000D4FB034687F88F3297F88F32002B03D0FA
:10402000002387F8973202E0012387F8973297F848
:104030009732184607F52777BD4690BD005A030012
:10404000C4590300245A0300345A0300485A030099
:1040500080B584B000AF786039600023FB60FB68F6
:104060000133FB60FB680133FB607B685B781A46B9
:10407000FB681344FB60FB680133FB60FB680133A2
:10408000FB6038687A68FB6813444022194614F0D4
:104090006FFB3B684022C3F8002100BF1037BD46CC
:1040A00080BDFFFF80B5A2B000AFF860B9607A6054
:1040B000012387F887300023C7F8803007F1100309
:1040C0001A46B968F86800F02DF8034687F887307B
:1040D00097F88730002B06D00F4830F053F80F4880
:1040E00030F0C0F812E007F110031946786806F0C6
:1040F00018F9C7F88000D7F88030002B06D108489F
:1041000030F040F8054830F0ADF800BF00BF184669
:104110008837BD4680BD00BF645A0300805A030043
:10412000845A030080B5CAB000AF07F59473A3F5B5
:104130008E73186007F59473A3F59073196007F5F3
:104140009473A3F592731A60002387F82731002334
:10415000C7F81C3107F59473A3F58C739A4A1A605B
:1041600007F59473A3F5907207F59473A3F58E7316
:104170001168186801F0F4F8C7F81801D7F8183179
:10418000002B00F01981D7F8183103F1100107F165
:104190001402D7F81C3113440A4608214D2006F0BA
:1041A000B3F9C7F81C01D7F81C31002B03D1012348
:1041B00087F8273100E107F59473A3F58A73D7F8E0
:1041C0001C21C3F80021D7F8183103F5BE7107F59B
:1041D0009473A3F58A73D3F8003107F114021344E2
:1041E0000A462021862006F08FF9C7F81C01D7F86F
:1041F0001C31002B03D1012387F82731DCE007F5C0
:104200009473A3F58A73D3F80021D7F81C311A44AC
:1042100007F59473A3F58A73C3F80021D7F8183112
:1042200003F1FA0107F59473A3F58A73D3F800310B
:1042300007F1140213440A462021872006F064F98E
:10424000C7F81C01D7F81C31002B03D1012387F8D4
:104250002731B1E007F59473A3F58A73D3F80021F1
:10426000D7F81C311A4407F59473A3F58A73C3F881
:104270000021D7F8183103F1180107F59473A3F55D
:104280008A73D3F8003107F1140213440A4610214F
:104290004C2006F039F9C7F81C01D7F81C31002B67
:1042A00003D1012387F8273186E007F59473A3F53E
:1042B0008A73D3F80021D7F81C311A4407F5947398
:1042C000A3F58A73C3F8002107F59473A3F58A73E5
:1042D000D3F8003107F11402134407F1100204214E
:1042E000932006F011F9C7F81C01D7F81C31002BF8
:1042F00003D1012387F827315EE007F59473A3F516
:104300008A73D3F80021D7F81C311A4407F5947347
:10431000A3F58A73C3F800212C482FF0A3FF2C4883
:104320002FF0A0FF0023C7F8203110E007F59473A9
:10433000A3F58A72D7F8203113441B781946254813
:104340002FF020FFD7F820310133C7F8203107F5CF
:104350009473A3F58A73D3F80021D7F820319A42D9
:10436000E4D807F59473A3F58A73D3F8003119469E
:1043700019482FF007FF16482FF074FFD7F81831AF
:1043800003F1280207F59473A3F592731B680533B4
:1043900007F11401D7F8180101F0EEFE034687F883
:1043A000273197F82731002B06D00C482FF0EAFE72
:1043B00007482FF057FF00BF97F82731184607F539
:1043C0009477BD4680BD00BF415D9569A05A03004A
:1043D000805A0300B05A0300B85A0300C05A0300C1
:1043E000F0B5ADF2D44D06AF07F59763A3F2AC4339
:1043F000186007F59763A3F59663196007F597634F
:10440000A3F2B4431A60002387F8B73407F5976323
:10441000A3F2AC431B68C7F87C340023A7F87A34B6
:104420000023C7F874340023C7F8703407F5976386
:10443000A3F2A443CC4A1A6007F59763A3F59662EA
:1044400007F59763A3F2AC431168186800F088FF82
:10445000C7F87C04D7F87C34002B00F0EA86D7F844
:104460007C3403F27B1107F585634122184614F072
:104470007FF9034687F8B73497F8B734002B07D095
:10448000BA482FF07FFEBA482FF0ECFE00F0D1BE04
:104490004123C7F86C340023C7F8B0340EE007F5A9
:1044A0008562D7F8B03413441B781946B1482FF011
:1044B00069FED7F8B0340133C7F8B034D7F86C24AC
:1044C000D7F8B0349A42EAD8D7F86C341946AA48DB
:1044D0002FF058FEA6482FF0C5FED7F87C3403F124
:1044E0007002D7F87C3403F11800D7F87C3403F558
:1044F000DE7307F5856100930346D7F87C0401F06D
:10450000D3FC034687F8B73497F8B734002B07D0AD
:104510009A482FF037FE96482FF0A4FE00F089BE8F
:1045200097482FF02FFE92482FF09CFE95482FF0D1
:1045300099FE8F482FF096FE0023C7F8AC3410E0A8
:10454000D7F87C24D7F8AC34134403F5DE731B781A
:10455000194688482FF016FED7F8AC340133C7F857
:10456000AC34D7F87C34D3F80022D7F8AC349A4274
:10457000E6D8D7F87C34D3F8003219467E482FF0BD
:1045800001FE7B482FF06EFED7F87C3403F1FA0170
:1045900007F549732022184614F0EAF8034687F815
:1045A000B73497F8B734002B07D070482FF0EAFDE6
:1045B0006F482FF057FE00F03CBE07F59763A3F558
:1045C000CA732022C3F8002107F59763A3F5CA73C5
:1045D000D3F8003107F54972D018D7F87C3403F5C9
:1045E000BE732022194614F0C3F8034687F8B73487
:1045F00097F8B734002B07D05C482FF0C3FD5C4818
:104600002FF030FE00F015BE07F59763A3F5CA73CF
:10461000D3F8003103F1200207F59763A3F5CA73BD
:10462000C3F8002107F59763A3F5CA73D3F80031E7
:1046300007F54972D018D7F87C3418331022194680
:1046400014F096F8034687F8B73497F8B734002B80
:1046500007D046482FF096FD45482FF003FE00F0A6
:10466000E8BD07F59763A3F5CA73D3F8003103F1EA
:10467000100207F59763A3F5CA73C3F8002107F585
:104680009763A3F5CA73D3F8003107F59762A2F5D3
:10469000CA725E21D15407F59763A3F5CA73D3F8A4
:1046A00000315A1C07F59763A3F5CA73C3F80021BC
:1046B00007F59763A3F5CA73D3F80031D7F87C24C4
:1046C000117807F59762A2F5CA72D15407F597637E
:1046D000A3F5CA73D3F800315A1C07F59763A3F505
:1046E000CA73C3F8002107F59763A3F5CA73D3F81B
:1046F0000031D7F87C24517807F59762A2F5CA7289
:10470000D15407F59763A3F5CA73D3F800315A1C47
:1047100007F59763A3F5CA73C3F8002107F59763FC
:10472000A3F5CA73D3F80031C7F8743407F597635B
:10473000A3F5CA73D3F8003107F549721344082270
:104740001149184614F014F8034687F8B73497F85F
:10475000B734002B1AD005482FF014FD04482FF071
:1047600081FD00F066BD00BF4E887B4CDC5A030023
:10477000805A0300B05A0300B85A0300EC5A0300F1
:104780000C5B03002C5B0300345B030007F59763AD
:10479000A3F5CA73D3F8003103F1080207F5976354
:1047A000A3F5CA73C3F80021D7F87C349B88194657
:1047B000C8482FF0E7FCC8482FF054FDD7F87C34E8
:1047C0009B881B021AB2D7F87C349B881B0A9BB2C9
:1047D0001BB213431BB29AB207F59763A3F2A64329
:1047E0001A8007F59763A3F5CA73D3F8003107F56C
:1047F0004972134407F1120202215C2005F084FE85
:10480000C7F87004D7F87034002B04D1012387F85F
:10481000B73400F00EBD07F59763A3F5CA73D3F85C
:104820000021D7F870341A4407F59763A3F5CA73CB
:10483000C3F80021A9482FF015FDA7482FF012FD5D
:104840000023C7F8A83410E007F59763A3F5CA72F0
:10485000D7F8A83413441B781946A1482FF092FCCE
:10486000D7F8A8340133C7F8A83407F59763A3F540
:10487000CA73D3F80021D7F8A8349A42E4D807F5D0
:104880009763A3F5CA73D3F80031194695482FF002
:1048900079FC91482FF0E6FCD7F87C3403F5DE7103
:1048A00007F5497207F1180300935023D7F87C04E9
:1048B00001F09CFE034687F8B73497F8B734002B15
:1048C00007D089482FF05EFC83482FF0CBFC00F026
:1048D000B0BC86482FF056FC0023C7F8A43419E07A
:1048E000D7F8A43403F00F03002B02D180482FF037
:1048F000B9FC07F59763A3F59462D7F8A434134481
:104900001B78194676482FF03DFCD7F8A4340133C4
:10491000C7F8A434D7F8A4344F2BE1DD6E482FF04C
:10492000A1FCD7F87C3403F50170B7F87A3407F1AD
:10493000180213441022194613F01AFF034687F891
:10494000B73497F8B734002B07D06A482FF01AFC19
:1049500061482FF087FC00F06CBCD7F87C34102243
:10496000C3F84822B7F87A341033A7F87A34D7F866
:104970007C3403F51370B7F87A3407F11802134446
:104980001022194613F0F4FE034687F8B73497F85F
:10499000B734002B07D057482FF0F4FB4E482FF0C8
:1049A00061FC00F046BCD7F87C341022C3F890229A
:1049B000B7F87A341033A7F87A34D7F87C3403F593
:1049C0002570B7F87A3407F11802134410221946FB
:1049D00013F0CEFE034687F8B73497F8B734002BB0
:1049E00007D044482FF0CEFB3B482FF03BFC00F0B3
:1049F00020BCD7F87C341022C3F8D822B7F87A3418
:104A00001033A7F87A34D7F87C3403F55B70B7F825
:104A10007A3407F1180213442022194613F0A8FE35
:104A2000034687F8B73497F8B734002B06D03148DF
:104A30002FF0A8FB28482FF015FCFAE3D7F87C34B8
:104A40002022C3F8B0232C482FF00CFC0023C7F819
:104A5000A03410E0D7F87C24D7F8A034134403F531
:104A60005B731B7819461E482FF08CFBD7F8A034D7
:104A70000133C7F8A034D7F87C34D3F8B023D7F883
:104A8000A0349A42E6D814482FF0ECFB07F5976360
:104A9000A3F5CA73D7F87424C3F8002107F5976308
:104AA000A3F5CA73D3F8003107F5497213440A22FB
:104AB0001249184613F05CFE034687F8B73497F89E
:104AC000B734002B1CD00B482FF05CFB02482FF0B2
:104AD000C9FBAEE3405B0300805A0300545B030054
:104AE000B05A0300B85A03007C5B0300945B0300D8
:104AF000AC5B0300DC5A0300B05B0300B85B03004F
:104B000007F59763A3F5CA73D3F8003103F10A02DE
:104B100007F59763A3F5CA73C3F80021D7F87C346F
:104B20009B881946C3482FF02DFBC3482FF09AFBF2
:104B300007F59763A3F5CA73D3F8003107F54972F7
:104B4000134407F1120202215C2005F0DDFCC7F8D6
:104B50007004D7F87034002B03D1012387F8B734E1
:104B600067E307F59763A3F5CA73D3F80021D7F875
:104B700070341A4407F59763A3F5CA73C3F800218C
:104B8000AE482FF06FFBAC482FF06CFB0023C7F84A
:104B90009C3410E007F59763A3F5CA72D7F89C34EC
:104BA00013441B781946A6482FF0ECFAD7F89C342A
:104BB0000133C7F89C3407F59763A3F5CA73D3F89C
:104BC0000021D7F89C349A42E4D807F59763A3F5FF
:104BD000CA73D3F8003119469A482FF0D3FA964891
:104BE0002FF040FBD7F87C3403F5DE7107F54972EE
:104BF00007F1180300932023D7F87C0401F0F6FC9A
:104C0000034687F8B73497F8B734002B06D08E48A0
:104C10002FF0B8FA88482FF025FB0AE3D7F87C3448
:104C200003F5497307F118012022184613F0A0FD7F
:104C3000034687F8B73497F8B734002B06D083487B
:104C40002FF0A0FA7C482FF00DFBF2E2D7F87C346D
:104C50002022C3F868237E482FF004FB76482FF00B
:104C600001FB0023C7F8983411E007F59763A3F21E
:104C7000B4431A68D7F8983413441B78194670481F
:104C80002FF080FAD7F898340133C7F8983407F535
:104C90009763A3F2B4431B68D3F80021D7F8983484
:104CA0009A42E2D807F59763A3F2B4431B68D3F89E
:104CB0000031194667482FF065FA5F482FF0D2FAA5
:104CC00007F59763A3F2B4431B68D3F8003107F5E7
:104CD0009762A2F2B4421268D01807F59763A3F264
:104CE000B4431B6803F582730822194613F040FD94
:104CF000034687F8B73407F59763A3F2B4431B68FC
:104D0000D3F8003103F1080207F59763A3F2B44327
:104D10001B68C3F8002197F8B734002B40F0888255
:104D2000D7F87C3400229A704B482FF02BFA424877
:104D30002FF098FA07F59763A3F2B4431B6800229B
:104D4000A3F80C21D7F87C3403F50174D7F87C3430
:104D500003F5257507F59763A3F2B4431E68D7F8EA
:104D60007C349B78D7F87C2402F56D72D7F87C14DC
:104D700001F5717107F59760A0F2B4400068B0F8D2
:104D80000C01049007F58E7003900291019200933C
:104D900033462A462146D7F87C0401F09DFD0346A0
:104DA00087F8B73497F8B734002B06D027482FF090
:104DB000E9F921482FF056FA3BE228482FF052FA41
:104DC0001D482FF04FFA0023C7F8943410E007F580
:104DD0009763A3F56772D7F8943413441B78194688
:104DE00017482FF0CFF9D7F894340133C7F894342B
:104DF00007F59763A3F56773D3F80021D7F89434C8
:104E00009A42E4D807F59763A3F56773D3F80031A6
:104E1000194610482FF0B6F907482FF023FA10482A
:104E20002FF020FA04482FF01DFA0023C7F8903421
:104E300029E000BF405B0300805A0300C45B03000D
:104E4000B05A0300EC5B0300F85B0300DC5A03007C
:104E5000105C0300B85A0300245C0300385C0300B4
:104E6000485C0300D7F87C24D7F89034134403F54A
:104E700071731B781946CB482FF084F9D7F890341A
:104E80000133C7F89034D7F890340F2BEADD1021A6
:104E9000C5482FF077F9C5482FF0E4F9C4482FF042
:104EA000E1F9C2482FF0DEF90023C7F88C3413E093
:104EB00007F59763A3F2B4431A68D7F88C34134408
:104EC00003F582731B781946B6482FF05BF9D7F8C3
:104ED0008C340133C7F88C34D7F88C34072BE7DDDA
:104EE0000821B1482FF04EF9B0482FF0BBF907F573
:104EF000087207F58E7311461846FFF7A9F807F5F3
:104F000049734FF48272002118462FF0EDFA002306
:104F1000C7F87034D7F87C3403F1100107F54972F3
:104F2000D7F8703413440A4608214D2005F0ECFAF6
:104F3000C7F87004D7F87034002B03D1012387F829
:104F4000B73476E107F59763A3F5CA73D7F87024F1
:104F5000C3F80021D7F87C3403F5BE7107F59763D9
:104F6000A3F5CA73D3F8003107F5497213440A4612
:104F70002021862005F0C8FAC7F87004D7F87034ED
:104F8000002B03D1012387F8B73452E107F597636B
:104F9000A3F5CA73D3F80021D7F870341A4407F583
:104FA0009763A3F5CA73C3F80021D7F87C3403F1E3
:104FB000FA0107F59763A3F5CA73D3F8003107F533
:104FC000497213440A462021872005F09DFAC7F84C
:104FD0007004D7F87034002B03D1012387F8B7345D
:104FE00027E107F59763A3F5CA73D3F80021D7F833
:104FF00070341A4407F59763A3F5CA73C3F8002108
:10500000D7F87C3403F1180107F59763A3F5CA7349
:10501000D3F8003107F5497213440A4610214C2099
:1050200005F072FAC7F87004D7F87034002B03D17A
:10503000012387F8B734FCE007F59763A3F5CA733B
:10504000D3F80021D7F870341A4407F59763A3F515
:10505000CA73C3F8002107F59763A3F5CA73D3F8A1
:10506000003107F54972134407F11402042193201B
:1050700005F04AFAC7F87004D7F87034002B03D152
:10508000012387F8B734D4E007F59763A3F5CA7313
:10509000D3F80021D7F870341A4407F59763A3F5C5
:1050A000CA73C3F80021D7F87C3403F59D7107F566
:1050B00085634122184613F05BFB034687F8B7343B
:1050C00097F8B734002B06D03A482FF05BF83748F2
:1050D0002FF0C8F8ADE04123C7F86C3436482FF004
:1050E000C1F832482FF0BEF80023C7F8883410E02A
:1050F00007F59763A3F5CA72D7F8883413441B7871
:10510000194628482FF03EF8D7F888340133C7F8FD
:10511000883407F59763A3F5CA73D3F80021D7F84D
:1051200088349A42E4D807F59763A3F5CA73D3F895
:10513000003119461C482FF025F81C482FF092F832
:105140001E482FF08FF819482FF08CF80023C7F86D
:1051500084340EE007F58562D7F8843413441B7855
:10516000194610482FF00EF8D7F884340133C7F8E9
:105170008434D7F86C24D7F884349A42EAD8D7F824
:105180006C34194608482EF0FDFF08482FF06AF8E5
:105190000B482FF067F805482FF064F80023C7F894
:1051A000803420E0B05A0300B85A0300805A03004C
:1051B000545C0300DC5A0300685C0300845C030059
:1051C000985C030007F59763A3F52672D7F880343F
:1051D00013441B7819461A482EF0D4FFD7F88034B0
:1051E0000133C7F8803407F59763A3F52673D3F826
:1051F0000021D7F880349A42E4D807F59763A3F5E5
:105200002673D3F8003119460E482EF0BBFF0E4826
:105210002FF028F807F5087307F5497207F585613F
:10522000D7F87C0401F0B2F8034687F8B73400E001
:1052300000BF97F8B734184607F2BC47BD46F0BD2B
:10524000B05A0300B85A0300805A030080B586B0F4
:1052500000AFF860B9607A600123FB75B968F8683F
:1052600000F07EF838613B69002B06D03B6903F5FE
:105270005B727B681A600023FB75FB7D184618374C
:10528000BD4680BD80B487B000AFF860B9601146FC
:105290001A460B46FB711346BB7100237B617B6989
:1052A00018461C37BD465DF8047B7047B0B59AB010
:1052B00000AF78603960224B07F148041D460FCDDE
:1052C0000FC495E80F0084E80F001E4B07F1280477
:1052D0001D460FCD0FC495E80F0084E80F001A4B50
:1052E00007F108041D460FCD0FC495E80F0084E8B0
:1052F0000F00164B042283F8B82007F14803202240
:105300001946134813F034FA07F1280320221946EE
:10531000104813F02DFA07F10803202219460E4811
:1053200013F026FA094B2022DA66412279680B48ED
:1053300013F01EFA002318466837BD46B0BD00BF03
:10534000A85C0300C85C0300E85C0300181E002092
:10535000D11E0020F11E0020401E0020521F002000
:1053600080B483B000AF78603960034B18460C37C7
:10537000BD465DF8047B7047181E0020F0B5ADF502
:10538000297D06AF07F52273A3F51F73186007F593
:105390002273A3F52073196007F52273A3F5217317
:1053A0001A60002387F88732002387F886320023AB
:1053B000C7F880320023C7F87C3207F52273A3F5C3
:1053C0000873884A1A6007F52273A3F51973864A91
:1053D0001846114641231A462FF003F907F52273A8
:1053E000A3F5207207F52273A3F51F7311681868DF
:1053F000FFF7B6FFC7F87802D7F87832002B00F035
:10540000EA80D7F878329B780133DAB2D7F878326D
:105410009A70D7F878329B7887F8863207F168015E
:1054200007F5B8730422184613F0A2F9034687F86B
:10543000873297F88732002B06D06C482EF0A2FEF8
:105440006B482EF00FFFC6E00423C7F8803207F543
:105450002273A3F58C730422C3F8002107F5B872F8
:10546000D7F88032134407F124014122184613F083
:105470007FF9034687F8873297F88732002B06D0EA
:105480005A482EF07FFE5A482EF0ECFEA3E0D7F8E3
:1054900080324133C7F8803207F52273A3F58C734D
:1054A000D3F8003103F1410207F52273A3F58C73A1
:1054B000C3F80021D7F8803203F00F03C3F11003C3
:1054C000C7F8743207F52273A3F51D7300221A6022
:1054D000043300221A605A609A6007F52273A3F51C
:1054E0001D7380221A7007F52273A3F58C73D3F80D
:1054F000003107F5B872134407F11401D7F874228C
:10550000184613F035F9034687F8873207F52273FA
:10551000A3F58C73D3F80021D7F874321A4407F539
:105520002273A3F58C73C3F800210023C7F87C32E3
:10553000D7F8783203F50174D7F8783203F513758C
:10554000D7F8783203F56D73D7F8782202F57172C7
:1055500007F52271A1F521710968083107F5B876C0
:10556000D7F87C02049003910292019397F8863257
:10557000009333462A462146D7F8780201F030FCE2
:10558000034687F8873297F88732002B06D01948F0
:105590002EF0F8FD16482EF065FE1CE007F522738C
:1055A000A3F521731B6803F58670D7F8783203F5ED
:1055B00071730822194613F0DBF8034687F8873227
:1055C00097F88732002B06D008482EF0DBFD0848FC
:1055D0002EF048FE00BF97F88732184607F523776C
:1055E000BD46F0BD08A43000345D0300085D030033
:1055F000185D03001C5D030080B487B000AFF86045
:10560000B9607A603B600023FB75FB7D18461C3750
:10561000BD465DF8047B704780B5CCB000AF07F5A0
:105620009873A3F59273186007F59873A3F59473B4
:10563000196007F59873A3F596731A600023C7F8ED
:105640002C31012387F82B3107F1100207F59873ED
:10565000A3F5947107F59873A3F592730968186818
:10566000FFF78CFE034687F82B3197F82B31002B80
:1056700006D012482EF086FD11482EF0F3FD16E0FC
:1056800007F1100207F59873A3F596731146186891
:1056900004F0C5FEC7F82C01D7F82C31002B06D139
:1056A00008482EF06FFD06482EF0DCFD00BFD7F84D
:1056B0002C31184607F59877BD4680BD785D03000C
:1056C000185D0300945D030080B487B000AFF860FC
:1056D0000B467A60FB720023FB757B68A0225A722E
:1056E0007B6800225A727B6800225A727B6808220B
:1056F0005A727B6809225A727B6843225A727B680D
:1057000043225A727B6843225A727B6844225A723F
:105710007B684B225A727B6841225A727B687622E0
:105720005A727B6831225A72FB7D18461C37BD467F
:105730005DF8047B704780B586B000AFF860B96053
:105740007A603B600023FB75B968F868FFF708FED4
:1057500038613B69002B03D07B685A883B699A808B
:10576000FB7D18461837BD4680BD80B586B000AFBA
:10577000F860B9607A600123FB75B968F868FFF7D3
:10578000EFFD38613B69002B12D03B6903F575735F
:105790001A461021F86800F06DF90346FB75FB7D91
:1057A000002B07D13B6903F575727B681A6002E034
:1057B00000BF00E000BFFB7D18461837BD4680BD26
:1057C00090B5ADF51B7D00AF07F51A74A4F51774FD
:1057D000206007F51A70A0F51870016007F51A71BE
:1057E000A1F519710A6007F51A72A2F51A72136011
:1057F000012387F8673207F506734822002118460F
:105800002EF072FE07F51A73A3F5AA7318464FF42B
:1058100082731A4600212EF067FE07F51A73A3F56E
:10582000167318464FF482731A4600212EF05CFE60
:1058300007F51A73A3F5187207F51A73A3F5177312
:1058400011681868FFF78CFDC7F86002D7F860325E
:10585000002B45D007F51A73A3F51A7207F51A73D2
:10586000A3F5197307F58A701268196812F080FFA2
:1058700007F51A73A3F5AA7307F51A72A2F51A723F
:105880001268C3F8002107F110034022D7F87812FC
:10589000184612F06DFF07F51A73A3F51673402230
:1058A000C3F80021D7F8603203F59D7107F5067340
:1058B0004122184612F05CFF4123C7F85C3207F121
:1058C000100307F58A7207F5067107F51A70A0F53F
:1058D0001770006800F05AFD034687F8673200E051
:1058E00000BF97F86732184607F51B77BD4690BD95
:1058F00080B584B000AF786039600123FB733968EC
:105900007868FFF72DFDB860BB6803F59D734122F1
:105910001946002019F06FFB0346FB73FB7B002B3D
:1059200005D005482EF02EFC04482EF09BFCFB7B96
:1059300018461037BD4680BDB45D0300CC5D030042
:1059400080B594B000AF7860002387F84F30012312
:1059500087F84E300023FB6007F110033D22002141
:1059600018462EF0C1FD07F10C0341221946002014
:1059700019F051FB034687F84E303B7B042B03D1D3
:10598000012387F84F3002E0012387F84F3007F1F9
:105990000C0300211846FFF789FC034687F84E30B8
:1059A00097F84F3018465037BD4680BD80B582B05D
:1059B00000AF00237B6000F04FF819F010FB034BA1
:1059C0007B607B6818460837BD4680BD00220020FA
:1059D00080B485B000AF78600023FB607B68FB601B
:1059E000FB6818461437BD465DF8047B704780B4E9
:1059F00085B000AF78600123FB730023FB73FB7B52
:105A000018461437BD465DF8047B704780B584B0F6
:105A100000AFF860B9607A60796808482EF0B2FB90
:105A20007B68FF2B04D87A680549B8682EF0D9FD49
:105A3000002318461037BD4680BD00BFD05D03006F
:105A40005C25002080B400AF024B1846BD465DF8CF
:105A5000047B70470422002080B582B000AF002391
:105A60007B60FFF7EFFF78607B6818460837BD461C
:105A700080BDFFFF80B5ADF55A7D02AF07F55873C5
:105A8000A3F55573186007F55873A3F5567319609D
:105A900007F55873A3F557731A602A4BC7F85833A4
:105AA000012387F85F334FF0FF33C7F8543307F50E
:105AB0005873A3F557731B68002B3CD007F11003F4
:105AC000184620F0A5FE07F1100303F5A0734FF46C
:105AD0000172002118462EF007FD07F1100303F5AF
